:020000040800F2
:1000000060490020B9030008218D0008238D0008F5
:10001000278D00082B8D00082F8D000800000000A0
:100020000000000000000000000000004501000882
:10003000338D00080000000089010008232B000810
:10004000D3030008D3030008D3030008D303000838
:10005000D3030008D3030008D3030008D303000828
:10006000D3030008D3030008D3030008D303000818
:10007000D3030008D3030008D3030008D303000808
:10008000D3030008D3030008D3030008D3030008F8
:10009000D3030008D3030008D3030008D3030008E8
:1000A000D3030008D3030008D3030008D3030008D8
:1000B000358D0008658D0008778E0008D303000891
:1000C000D3030008D3030008D3030008D3030008B8
:1000D000D30300080D930008D3030008CD93000854
:1000E000D3030008D3030008D3030008D303000898
:1000F000D3030008D3030008D3030008D303000888
:10010000D3030008D3030008D3030008D303000877
:1001100005940008C7940008D3030008D30300081F
:10012000D3030008D3030008D3030008D303000857
:10013000DFF80CD009F09CFA00480047DF8C00087B
:1001400060490020224B19680868B0E8F00F80F37E
:100150000988BFF36F8F4FF0000080F311884EF0D5
:100160000D0E70470000000006480068006880F32C
:10017000088862B661B6BFF34F8FBFF36F8F00DFA1
:1001800000BF00BF08ED00E0EFF30980BFF36F8F01
:100190000F4B1A6820E9F00F106008B54FF0BF0050
:1001A00080F31188BFF34F8FBFF36F8F03F03AF9DD
:1001B0004FF0000080F31188BDE808401968086816
:1001C000B0E8F00F80F30988BFF36F8F704700BF6E
:1001D00044000020EFF30580704700000CB50020BC
:1001E000019000906B48006840F4803069490860D5
:1001F00000BF6848006800F4003000900198401C7F
:100200000190009818B90198B0F5A06FF1D161483C
:10021000006810F4003F02D00120009001E00020AF
:1002200000900098012842D15B48006840F010001F
:10023000594908600846006820F003000860084635
:10024000006840F002000860524840685149486028
:100250000846406848600846406840F4806048604E
:100260000846406820F47C1048600846406840F426
:10027000E81048600846006840F08070086000BFE1
:100280004448006810F0007FFAD04248406820F0EF
:100290000300404948600846406840F0020048605A
:1002A00000BF3C48406800F00C000828F9D10CBDA4
:1002B00010B5FFF793FF10BD10B53648006840F049
:1002C0000100344908600846406834490840314913
:1002D000486008460068324908402E4908600846D0
:1002E000006820F4802008600846406820F4FE0082
:1002F00048604FF41F008860FFF7DAFF4FF000609E
:100300002849086010BD10B5002100200022214BB3
:100310005B6803F00C0121B1042906D0082928D11B
:1003200007E0214B214C236027E01F4B1F4C23602B
:1003300023E0184B5B6803F47010164B5B6803F402
:100340008032022303EB904022B9194B4343174CF0
:1003500023600DE00F4B5B6813F4003F04D0144B97
:100360004343124C236003E00F4B43430F4C236085
:1003700003E00D4B0D4C236000BF00BF054B5B68D5
:10038000C3F303130B4CE15C084B1B68CB40074CD9
:10039000236010BD00100240002002400000FFF862
:1003A000FFFFF6FE08ED00E000127A0000000020DA
:1003B00000093D0004000020064880470648004729
:1003C000FEE7FEE7FEE7FEE7FEE7FEE7FEE7FEE705
:1003D000FEE7FEE7B9020008310100083149014398
:1003E000314A1160704770B5002100230F22C47894
:1003F0000CB32D4C246804F4E064C4F5E064210AD5
:10040000C1F10403CA40447804FA03F1847814402B
:1004100021430901254C0678A155047804F01F05F5
:100420000124AC4005786D114FF0E02606EB850500
:10043000C5F8004109E0047804F01F050124AC4030
:100440001B4D0678761145F8264070BD194A0A40C2
:100450000243154B1B1F1A60704739B1124A121D17
:1004600012680243104B1B1D1A6006E00E4A121D53
:10047000126882430C4B1B1D1A607047042808D178
:100480004FF0E021096941F004014FF0E0221161D1
:1004900007E04FF0E021096921F004014FF0E0226C
:1004A000116170470000FA050CED00E000E400E087
:1004B00080E100E080FFFF1F10B50446FA48844247
:1004C00008D10121401501F075F90021601501F0F6
:1004D00071F917E0F548844208D10121001501F0B7
:1004E00069F90021201501F065F90BE0F04884421C
:1004F00008D10121C80301F05DF900214FF400404B
:1005000001F058F910BD30B50246002000235068B4
:10051000E84C20400D790C6844EA052420435060E3
:100520009068E54C2040D1E902542C434D7944EACF
:10053000450420439060D06A20F470000C7C641E57
:10054000E4B2234340EA0350D06230BD0021016091
:10055000017141718160C16001210174704721B155
:10056000826842F00102826003E0826822F00102A8
:100570008260704721B1826842F48072826003E039
:10058000826822F480728260704710B50023CBB27B
:100590001AB144681C43446002E044689C434460D0
:1005A00010BD816841F0080181607047014600205C
:1005B0008A6812F0080F01D0012000E00020704787
:1005C000816841F0040181607047014600208A681B
:1005D00012F0040F01D0012000E00020704721B18B
:1005E000826842F4A002826003E0826822F4A002E2
:1005F00082607047014600208A6812F4800F01D0A3
:10060000012000E00020704710B50A4600210023B9
:10061000416821F46041531E41EA4331416010BDFD
:1006200021B1426842F40062426003E0426822F471
:10063000006242607047F0B504460D46002000217C
:10064000092D11DDE068A5F10A0606EB460707262D
:1006500006FA07F18843A5F10A0606EB460603FAF7
:1006600006F10843E0600CE0206905EB450707262A
:1006700006FA07F1884305EB450603FA06F108433D
:100680002061072A0FDA606B561E06EB86071F26CD
:1006900006FA07F18843561E06EB860605FA06F1B0
:1006A0000843606322E00D2A0FDA206BD61F06EBA9
:1006B00086071F2606FA07F18843D61F06EB860633
:1006C00005FA06F10843206310E0E06AA2F10D0686
:1006D00006EB86071F2606FA07F18843A2F10D06EE
:1006E00006EB860605FA06F10843E062F0BD21B18B
:1006F000826842F48012826003E0826822F48012F1
:10070000826070470146C86C80B2704766484C30C2
:100710000068704721B1426842F48062426003E0A1
:10072000426822F480624260704721B1426842F41C
:100730008052426003E0426822F480524260704777
:100740000A460021816821F4E0411143816070472D
:1007500021B1826842F40042826003E0826822F4A0
:1007600000428260704721B1826842F402128260C6
:1007700003E0826822F40212826070470146002082
:100780008A6812F4001F01D0012000E000207047A9
:10079000F0B504461546002000220026092911DD87
:1007A000E068A1F10A0707EB470C072707FA0CF2EC
:1007B0009043A1F10A0707EB470703FA07F210433A
:1007C000E0600CE0206901EB410C072707FA0CF20E
:1007D000904301EB410703FA07F210432061A06B3D
:1007E000C0F30156EF1C06F1010CA7EB0C0707EB59
:1007F000870C1F2707FA0CF29043EF1C06F1010C3F
:10080000A7EB0C0707EB870701FA07F21043A06379
:10081000F0BD10B50A4600210023816B21F4401180
:10082000531E41EA0351816310BD08B500230093B4
:100830000090009B0B440093009B1A6008BD08B514
:10084000024600200090009201F12800009B18440D
:1008500000900098006880B208BD0A4600214168F7
:10086000164B1940114341607047416282627047E4
:100870000A460021416821F01F0111434160704781
:1008800040B109490831096841F40001064A0832BB
:10089000116007E004490831096821F40001024AA7
:1008A0000832116070470000002401400028014018
:1008B000003C0140FFFEF0FFFDF7F1FFFFFD3FFFB1
:1008C0000246002013680B4201D0012000E0002006
:1008D0007047CA430260704770B50246002000238B
:1008E00000240B125568CEB205EA060415681D42B5
:1008F00002D00CB1012000E0002070BD00220A12DD
:10090000D34303607047000001684FF6FE72114048
:1009100001600021016041608160C1608C498842B2
:1009200008D18B490839496841F00F01884A083AD3
:1009300051608AE086491431884208D184490839D7
:10094000496841F0F001824A083A51607DE08049EF
:100950002831884208D17E490839496841F47061DC
:100960007B4A083A516070E079493C31884208D1AD
:1009700077490839496841F47041754A083A51602D
:1009800063E073495031884208D171490839496898
:1009900041F470216E4A083A516056E06C49643166
:1009A000884208D16A490839496841F47001684AA7
:1009B000083A516049E066497831884208D1644973
:1009C0000839496841F07061614A083A51603CE079
:1009D0006049884206D1011F096841F00F01021FDA
:1009E000116032E05B491431884208D15949091F2E
:1009F000096841F0F001574A121F116025E055497E
:100A00002831884208D15349091F096841F47061AF
:100A1000504A121F116018E04E493C31884208D1FB
:100A20004C49091F096841F470414A4A121F11607C
:100A30000BE048495031884207D14649091F0968EF
:100A400041F47021434A121F1160704710B5002213
:100A5000026847F6F0739A430C6A8B6823430C696B
:100A600023434C6923438C692343CC6923434C6A59
:100A700023438C6A23431A430260CB6843600B68AC
:100A800083604B68C36010BD0021016041608160DC
:100A9000C160016141618161C16101624162816244
:100AA000704721B1026842F00102026004E002686E
:100AB0004FF6FE731A40026070471AB103680B4389
:100AC000036002E003688B43036070474160704736
:100AD0000146486880B2704701460020002211F0AC
:100AE000805F03D01B4B083B1A6802E0184B083BA1
:100AF0001A680A4201D0012000E00020704710F07F
:100B0000805F03D01349091F086002E010490839CB
:100B10004860704701460020002211F0805F03D03A
:100B20000C4B083B1A6802E0094B083B1A680A4262
:100B300001D0012000E00020704710F0805F03D05A
:100B40000449091F086002E00149083948607047FC
:100B5000080002400804024001460020FE4A1068D6
:100B600000F03800084310607047FB49096821F025
:100B70000801F94A11601146096801431160704784
:100B8000F549096821F01001F34A1160114609681E
:100B9000014311607047F148EF494860F0484860F0
:100BA0007047EE48EC494860ED4848607047EA48B5
:100BB000006940F08000E84908617047E648006934
:100BC00040F08000E449086170470420E249C968A8
:100BD00011F0010F01D001200EE0DF49C96811F0CA
:100BE000040F01D0022007E0DB49C96811F0100FA3
:100BF00001D0032000E00420704700B50246042322
:100C0000FFF7E3FF034603E0FFF7DFFF0346521E53
:100C1000012B01D1002AF7D102B90523184600BDE6
:100C200030B5044604254FF43020FFF7E6FF0546B3
:100C3000042D17D1C848006940F00200C649086178
:100C400008464461006940F0400008614FF43020DC
:100C5000FFF7D3FF0546C048006941F6FD71084023
:100C6000BD490861284630BD10B504244FF430203A
:100C7000FFF7C3FF0446042C16D1B748006940F0C3
:100C80000400B54908610846006940F04000086169
:100C90004FF43020FFF7B1FF0446AF48006941F63A
:100CA000FB710840AC490861204610BD00B5024602
:100CB0000423FFF78AFF034603E0FFF786FF03469E
:100CC000521E012B01D1002AF7D102B90523184683
:100CD00000BD10B504244FF43020FFF7E7FF0446B1
:100CE000042C16D19C48006940F004009A49086120
:100CF0000846006940F0400008614FF43020FFF7DB
:100D0000D5FF04469448006941F6FB7108409249BA
:100D10000861204610BD00208F49C96911F0020FFB
:100D200001D0012000E00020704730B5A525042443
:100D3000FFF7F1FF00B100254FF43020FFF75DFF12
:100D40000446042C3AD185488349886084488860E9
:100D50000846006940F0200008610846006940F03C
:100D6000400008614FF43020FFF747FF0446042C91
:100D70001BD17948006941F6DF7108407649086166
:100D80000846006940F01000086176480580E002DE
:100D9000FFF733FF0446052C10D06F48006941F679
:100DA000EF7108406C49086108E0052C06D06A48DC
:100DB000006941F6EF71084067490861204630BD7F
:100DC00078B506460C46042500200090E802FFF79F
:100DD00014FF0546042D24D15F48006940F001004E
:100DE0005D4908613480E802FFF707FF0546042DDE
:100DF00010D1B01C0090200C00990880E802FFF789
:100E0000FCFE05465448006941F6FE71084052490F
:100E1000086106E05048006941F6FE7108404E49FD
:100E20000861284678BD70B504460D460426F002D8
:100E3000FFF7E3FE0646042E11D14748006940F053
:100E40000100454908612580F002FFF7D6FE0646FD
:100E50004148006941F6FE7108403F49086130464B
:100E600070BD70B505460E460424E002FFF7C5FECE
:100E70000446042C17D139483749886038488860BF
:100E80000846006940F0100008612E80E002FFF77C
:100E9000B4FE0446052C06D02F48006941F6EF71D8
:100EA00008402D490861204670BD2DE9F0430446F5
:100EB0004FF6FF763746B046B1460425E443E6B226
:100EC000C4F30727C4F307484FEA1469E802FFF7A1
:100ED00094FE0546042D49D120481F4988602048CA
:100EE00088600846006940F010000861FF2E06D0B7
:100EF0001C4808300680E802FFF77FFE0546042DF7
:100F000008D1FF2F06D017480A300780E802FFF704
:100F100074FE0546042D0AD1B8F1FF0F07D0114821
:100F20000C30A0F80080E802FFF767FE0546042DAC
:100F30000AD1B9F1FF0F07D00A480E30A0F800908F
:100F4000E802FFF75AFE0546052D0FD0024800695A
:100F500041F6EF71084007E0002002402301674599
:100F6000AB89EFCD00F8FF1F664908612846BDE850
:100F7000F08330B5054604244FF43020FFF73DFEE2
:100F80000446042C41D160485E4988605F4888600F
:100F90000846006940F0200008610846006940F0FA
:100FA000400008614FF43020FFF727FE0446042C70
:100FB00022D15448006941F6DF7108405149086167
:100FC0000846006940F0100008611DB1002050493A
:100FD000088002E0A5204E4908804FF43020FFF73A
:100FE0000CFE0446052C10D04648006941F6EF710E
:100FF00008404449086108E0052C06D041480069D2
:1010000041F6DF7108403F490861204630BDF0B528
:1010100005460E46174604243B483A4988603B483B
:101020008860E002FFF7E9FD0446042C19D1354839
:10103000006940F010003349086147F0F800304380
:1010400028433349891C0880E002FFF7D6FD044697
:10105000052C06D02B48006941F6EF71084029495C
:1010600008612046F0BD2748C069800870472548C0
:10107000006A704700202349096811F0200F01D051
:10108000012000E00020704729B11E4A1269024386
:101090001C4B1A6104E01B4A12698243194B1A6106
:1010A000704701460020012908D1164AD26912F082
:1010B000010F01D0012008E0002006E0114AD268AB
:1010C0000A4201D0012000E0002070470D49C860AD
:1010D000704704200B49C96811F0010F01D00120AD
:1010E0000EE00849C96811F0040F01D0022007E0A2
:1010F0000449C96811F0100F01D0032000E004205A
:10110000704700000020024023016745AB89EFCD06
:1011100000F8FF1F10B50446CA48844208D10121D7
:10112000042000F047FB0021042000F043FB46E0D0
:10113000C548844208D10121082000F03BFB002172
:10114000082000F037FB3AE0C048844208D1012172
:10115000102000F02FFB0021102000F02BFB2EE0D0
:10116000BB48844208D10121202000F023FB00214C
:10117000202000F01FFB22E0B648844208D1012164
:10118000402000F017FB0021402000F013FB16E088
:10119000B148844208D10121802000F00BFB0021DE
:1011A000802000F007FB0AE0AC48844207D101210F
:1011B000801500F0FFFA0021A01500F0FBFA10BD29
:1011C00010B50121084600F0F5FA0021012000F0D9
:1011D000F1FA10BD2DE9F04102460025002600205D
:1011E00000230024002791F803C00CF00F0591F8AC
:1011F00003C01CF0100F03D091F802C04CEA0505A3
:1012000091F800C0BCF1000F31D0146800202BE031
:101210004FF0010C0CFA00F3B1F800C00CEA030621
:101220009E4220D183004FF00F0C0CFA03F7BC4311
:1012300005FA03FC4CEA040491F803C0BCF1280F42
:1012400006D14FF0010C0CFA00FCC2F814C00AE001
:1012500091F803C0BCF1480F05D14FF0010C0CFA16
:1012600000FCC2F810C0401C0828D1D31460B1F8AB
:1012700000C0BCF1FF0F34DD546800202EE000F107
:10128000080C4FF0010808FA0CF3B1F800C00CEAA2
:1012900003069E4221D183004FF00F0C0CFA03F796
:1012A000BC4305FA03FC4CEA040491F803C0BCF10A
:1012B000280F05D100F1080C08FA0CF8C2F81480C8
:1012C00091F803C0BCF1480F07D100F1080C4FF0B2
:1012D000010808FA0CF8C2F81080401C0828CED388
:1012E0005460BDE8F0814FF6FF71018002218170EA
:1012F0000421C17070470246002093680B4201D060
:10130000012000E0002070470146886880B27047E5
:1013100002460020D3680B4201D0012000E00020EB
:1013200070470146C86880B27047016170474161EB
:1013300070470AB1016100E041617047C1607047C8
:101340004FF480320A4382618161826182698269DD
:10135000704702460020424B18684FF680731840D1
:1013600040EA021008433E4B186070473D49C8618F
:101370007047F0B50A46002300240021002500F044
:101380000046B6F1004F02D1354EF16901E0344E0E
:101390007168C0F3034583B200F44016B6F5401FF0
:1013A00008D121F070612E4E766826F070662C4FC1
:1013B0007E6012E000F48016B6F5801F06D1032689
:1013C00006FA05F4A14341F0706106E0460D3601CE
:1013D00003FA06F6B14341F0706122B1460D3601C1
:1013E00003FA06F6314300F00046B6F1004F02D191
:1013F0001B4EF16101E01A4E7160F0BD30B5002264
:101400008B071C0F0F2303FA04F2154B08338C10C3
:1014100053F824309343124C08348D1044F825308F
:1014200023468C1053F824308C07240F00FA04F460
:1014300023430B4C08348D1044F8253030BD0A4945
:101440000860704700080140000C01400010014096
:101450000014014000180140001C01400020014020
:101460000000014000002042DC0020420E490860DC
:1014700070470D49486070470B49886070474AF6CD
:10148000AA200949086070474CF6CC40064908601C
:10149000704701460020044AD2680A4201D0012068
:1014A00000E000207047000000300040DD48006888
:1014B00040F00100DB49086008464068DA4908400E
:1014C000D849486008460068D8490840D5490860AE
:1014D0000846006820F4802008600846406820F430
:1014E000FE0048604FF41F0088607047CD490968CE
:1014F00021F48031CB4A11601146096821F4802122
:101500001160B0F5803F03D0B0F5802F0ED106E01A
:10151000C449096841F48031C24A116007E0C149F9
:10152000096841F4A021BF4A116000E000BF00BF7C
:10153000704710B501460022002300204A11012AFD
:1015400002D1B84C236806E0022A02D1B54C236AC6
:1015500001E0B44C636A01F01F02012494401C4274
:1015600001D0012000E0002010BD38B5002000901F
:101570000024002500BF3120FFF7DBFF054600985F
:10158000401C00900098B0F5A06F01D0002DF2D063
:101590003120FFF7CEFF08B1012400E000242046EF
:1015A00038BD014600209F4A106820F0F80040EA4C
:1015B000C100106070479E490860704702460020D5
:1015C000984B586820F47C1042EA01031843954B6D
:1015D0005860704796490866704701460020914A56
:1015E000506820F003000843506070478D48406801
:1015F00000F00C007047014600208A4A506820F035
:10160000F00008435060704701460020854A50684A
:1016100020F4E06008435060704701460020814A92
:10162000506820F4605040EAC1005060704729B112
:101630007C4A527A02437B4B5A7204E0794A527ACE
:101640008243784B5A7270477A4908607047014666
:101650000020744A506820F44040084350607047AE
:101660000021754A11706F4A82F82010012802D0BB
:10167000042808D103E001216F4A117004E005211C
:101680006D4A117000E000BF00BF70476B490860F1
:1016900070476449096A0143624A116270476749A9
:1016A00044390860704730B500210022002400232F
:1016B0005C4D6D6805F00C0121B1042905D00829A5
:1016C00023D105E05E4D056022E05D4D05601FE021
:1016D000544D6D6805F47012524D6D6805F48034F8
:1016E000022505EB92421CB9564D554305600BE0AF
:1016F0004C4D6D6815F4003F03D0524D55430560C5
:1017000002E04F4D5543056002E04D4D056000BFBE
:1017100000BF444D6D6805F0F00109094A4D6B5C4E
:101720000568DD4045603F4D6D6805F4E061090ADC
:10173000454D6B5C4568DD4085603A4D6D6805F44C
:101740006051C90A404D6B5C4568DD40C560354D50
:101750006D6805F44041890B3C4D6B5CC568B5FB79
:10176000F3F5056130BD29B12E4A526902432D4B74
:101770005A6104E02B4A526982432A4B5A617047EE
:1017800029B1284A92690243264B9A6104E0254A0E
:1017900092698243234B9A61704729B1214AD269E9
:1017A0000243204BDA6104E01E4AD26982431D4B9A
:1017B000DA61704729B11B4AD2680243194BDA60DB
:1017C00004E0184AD2688243164BDA60704729B1A8
:1017D000144A12690243134B1A6104E0114A126958
:1017E0008243104B1A6170471449403908607047B2
:1017F0000F49C86470470B49C87170470948406A6F
:1018000040F0807007494862704701460020054A51
:1018100092680A4201D0012000E00020704701498F
:1018200088727047001002400000FFF8FFFFF6FECC
:1018300000004242D800424220100240800442424E
:1018400000127A0000093D0014000020240000204E
:1018500010B50446FE48844208D10121C014FFF7A8
:10186000A9FF0021E014FFF7A5FFC4E0B4F1804F09
:1018700008D101210846FFF7AAFF00210120FFF748
:10188000A6FFB8E0F348844208D101210220FFF707
:101890009EFF00210220FFF79AFFACE0EE48844251
:1018A00008D101210420FFF792FF00210420FFF757
:1018B0008EFFA0E0E948844208D101210820FFF70B
:1018C00086FF00210820FFF782FF94E0E44884426D
:1018D00008D101211020FFF77AFF00211020FFF727
:1018E00076FF88E0DF48844208D101212020FFF7FD
:1018F0006EFF00212020FFF76AFF7CE0DA48844277
:1019000008D101214014FFF755FF00216014FFF7B3
:1019100051FF70E0D548844209D10121C804FFF786
:1019200049FF00214FF40020FFF744FF63E0D04857
:10193000844209D101210805FFF73CFF00214FF443
:101940008010FFF737FF56E0CA48844209D10121D1
:101950004805FFF72FFF00214FF40010FFF72AFF83
:1019600049E0C548844208D101214020FFF72FFFFC
:1019700000214020FFF72BFF3DE0C048844208D102
:1019800001218020FFF723FF00218020FFF71FFFA8
:1019900031E0BB48844208D101218015FFF717FFD1
:1019A0000021A015FFF713FF25E0B648844209D1B6
:1019B00001210804FFF7FEFE00214FF48030FFF7FD
:1019C000F9FE18E0B048844209D101214804FFF72C
:1019D000F1FE00214FF40030FFF7ECFE0BE0AB48C6
:1019E000844208D101218804FFF7E4FE00214FF46E
:1019F0008020FFF7DFFE10BD00220288944B984242
:101A00000ED0994B98420BD0B0F1804F08D0914B3B
:101A1000984205D0904B984202D0904B984204D106
:101A20004FF68F731A404B881A438D4B984207D05C
:101A30008C4B984204D04FF6FF431A40CB881A4390
:101A400002808B8883850B880385814B98420BD05D
:101A5000854B984208D08B4B984205D08A4B9842D0
:101A600002D08A4B984201D10B7A038601238382EC
:101A7000704770B5002400220023058C4FF6FE76D7
:101A800035400584028C8388048B4FF68F752C407B
:101A9000B51E2C400D882C43751E2A400D892A4303
:101AA0004D882A436A4DA8420BD06F4DA84208D0FA
:101AB000744DA84205D0744DA84202D0734DA8427F
:101AC00013D14FF6F7752A404D892A434FF6FB751F
:101AD0002A408D882A434FF6FF652B404FF6FF556D
:101AE0002B408D892B43CD892B4383800483CD8864
:101AF0008586028470BD70B5002400220023058C09
:101B00004FF6EF7635400584028C8388048B48F6C7
:101B1000FF752C404FF6FF452C400D884FF6FF76A1
:101B200006EA05252C434FF6DF752A400D8906EAA3
:101B300005152A434D8806EA05152A43444DA84257
:101B400002D0494DA8421DD14FF67F752A404D89DC
:101B50004FF6FF7606EA05152A434FF6BF752A4071
:101B60008D8806EA05152A434FF6FF352B404FF2C4
:101B7000FF752B408D8906EA85052B43CD8906EA42
:101B800085052B4383800483CD880587028470BD3F
:101B900070B5002400220023058C4FF6FF66354007
:101BA0000584028C8388848B4FF68F752C404FF60A
:101BB000FC752C400D882C434FF6FF552A400D89AB
:101BC0004FF6FF7606EA05252A434D8806EA0525E5
:101BD0002A431F4DA84202D0234DA8421DD14FF2E7
:101BE000FF752A404D894FF6FF7606EA05252A4300
:101BF0004FF6FF352A408D8806EA05252A434EF622
:101C0000FF752B404DF6FF752B408D8906EA0515B3
:101C10002B43CD8906EA05152B4383808483CD8829
:101C20008587028470BD70B5002200230024058CD6
:101C30004EF6FF7635400584038C8488828B48F607
:101C4000FF752A404FF6FF452A400D8820E000002E
:101C5000002C01400004004000080040000C00403F
:101C6000001000400014004000340140004C0140CE
:101C7000005001400054014000180040001C00408A
:101C80000020004000400140004401400048014065
:101C90004FF6FF7606EA05252A434DF6FF752B40E1
:101CA0000D8906EA05352B434D8806EA05352B4399
:101CB000FA4DA84202D0FA4DA84208D14BF6FF7562
:101CC0002C408D894FF6FF7606EA85152C438480DB
:101CD0008283CD88A0F84050038470BD828B4FF280
:101CE000FF331A408283828B4FF6FF7303EA01238E
:101CF0001A4382837047F0B50C4615460022002136
:101D00000026078C4EF6FF7C07EA0C070784828BBF
:101D1000018C4FF6FF7707EA043640F6FF473A405A
:101D20004FF6FF7707EA05273A434FF6FF7707EAB2
:101D300003373A43D94FB8420ED0D94FB8420BD0EF
:101D4000B0F1804F08D0D74FB84205D0D64FB84237
:101D500002D0D64FB84206D14DF6FF77394046F44F
:101D60008057394305E047F6FF57394044F4805720
:101D7000394382830184F0BD828B4FF6F3731A409E
:101D80008283828B0A4382837047F0B50C461546E6
:101D9000002200210026078C4FF6FF6C07EA0C0793
:101DA0000784828B018C4FF6FF7707EA04264FF6F3
:101DB0000C773A404FF6FF7707EA03172F433A4371
:101DC000B64FB8420ED0B64FB8420BD0B0F1804FEC
:101DD00008D0B44FB84205D0B34FB84202D0B34F89
:101DE000B84206D14FF6FF57394046F48077394361
:101DF00005E04FF2FF57394044F48077394382833E
:101E00000184F0BD028B4FF2FF331A400283028B34
:101E10004FF6FF7303EA01231A4302837047F0B5BC
:101E20000C461546002200210026078C4FF6EF7C59
:101E300007EA0C070784028B018C4FF6FF7707EA4D
:101E4000041640F6FF473A404FF6FF7707EA03379C
:101E50003A434FF6FF7707EA05273A438F4FB842D8
:101E60000ED08F4FB8420BD0B0F1804F08D08D4FBD
:101E7000B84205D08C4FB84202D08C4FB84206D140
:101E80004FF6DF77394046F01007394305E04FF64B
:101E90005F77394044F01007394302830184F0BD75
:101EA000028B4FF6F3731A400283028B0A430283BC
:101EB0007047F0B50C46154600220021068C4FF6FF
:101EC000FE773E400684028B018C4FF60C76324042
:101ED0007E1C06EA03162E433243704EB0420ED0EB
:101EE0006F4EB0420BD0B0F1804F08D06D4EB04273
:101EF00005D06D4EB04202D06C4EB04206D14FF6C6
:101F0000FD76314044F00106314305E04FF6F576A9
:101F1000314044F00106314302830184F0BD70B5C5
:101F200005460C465D4885420ED05D4885420BD083
:101F3000B5F1804F08D05B48854205D05A488542AC
:101F400002D05A48854200D100E000BF208850B935
:101F50002389A28861882846FFF7ABFFE1882846DD
:101F6000FFF79EFF25E0208804280AD12389A28854
:101F700061882846FFF753FFE1882846FFF742FFB4
:101F800017E0208808280AD12389A288618828467A
:101F9000FFF7FBFEE1882846FFF7EEFE09E0238904
:101FA000A28861882846FFF7A6FEE1882846FFF749
:101FB00095FE70BD2DE9F04105460C46002601272F
:101FC000608808B9022600E00026A088012801D117
:101FD000022700E001272088A0B92389A288618810
:101FE0002846FFF766FFE1882846FFF759FF238957
:101FF0003A4631462846FFF712FFE1882846FFF7A8
:1020000001FF13E02389A28861882846FFF707FFB4
:10201000E1882846FFF7F6FE23893A4631462846EE
:10202000FFF747FFE1882846FFF73AFFBDE8F08158
:102030000A884B881A438B881A43CB881A430B892A
:102040001A434B891A438B891A43A0F844207047DE
:102050004FF6FF71818000210180C18041800172B3
:1020600070470021018041808180C18001814181D0
:102070008181C181704700210180418001218180DF
:102080000021C18001817047002101804180818051
:10209000C18001814181818170470000002C014095
:1020A000003401400004004000080040000C0040E3
:1020B00021B1028842F00102028004E002884FF65A
:1020C000FE731A400280704731B1B0F8442042F4E8
:1020D0000042A0F8442005E0B0F84420C2F30E020C
:1020E000A0F8442070471AB183890B43838102E032
:1020F00083898B43838170478182704741EA020361
:10210000A0F8483070471AB183890B43838102E0FD
:1021100083898B438381704701894FF6F8721140A0
:10212000018170470A46002101894FF68F731940DB
:1021300011430181704730B504460D4629462046BB
:10214000FFF7F0FF208940F00700208130BD2DE926
:10215000F04104460D4616461F46602D06D13B460B
:10216000012231462046FFF75AFE05E03B46012298
:1021700031462046FFF79DFE29462046FFF7D2FF55
:10218000208940F007002081BDE8F08130B50C4681
:1021900000210189C9B24FF6FF7505EA03251543F1
:1021A00025432943018130BD2DE9F04105460E4606
:1021B00017469846002443463A4631462846FFF7DC
:1021C000E5FF2C894FF6F870044044F007044FF601
:1021D0008F70044044F070042C81BDE8F081F0B5AC
:1021E00004460D4616461F463B46324629462046C3
:1021F000FFF7CCFF208940F480402081F0BD0185AD
:10220000828270470A46002101884FF68F73194079
:10221000114301807047F0B50C4615461E4600215B
:10222000002200230189028B038C4FF6F877394096
:1022300021434FF6FC473A4040F201173A434FF62C
:10224000DD773B404FF6FF7707EA06172F433B4306
:10225000018102830384F0BD0A460021018B4FF601
:102260008F7319401143018370470A460021018B87
:1022700048F6FF7319404FF6FF7303EA0223194330
:10228000018370470A460021818B4FF68F731940F6
:102290001143818370470A460021818B48F6FF7302
:1022A00019404FF6FF7303EA0223194381837047F5
:1022B00021B1028842F08002028004E002884FF6D9
:1022C0007F731A400280704721B1828842F0040275
:1022D000828004E082884FF6FB731A408280704748
:1022E00021B1828842F00802828004E082884FF6A1
:1022F000F7731A408280704721B1828842F0010250
:10230000828004E082884FF6FE731A408280704714
:102310000A460021018B4FF6F773194011430183E0
:1023200070470A460021018B4FF2FF7319404FF6A8
:10233000FF7303EA02231943018370470A46002111
:10234000818B4FF6F77319401143818370470A461A
:102350000021818B4FF2FF7319404FF6FF7303EAA0
:1023600002231943818370470A460021018B4FF6EF
:10237000FB7319401143018370470A460021018B0A
:102380004FF6FF3319404FF6FF7303EA0223194358
:10239000018370470A460021818B4FF6FB73194079
:1023A0001143818370470A460021818B4FF6FF332A
:1023B00019404FF6FF7303EA0223194381837047E4
:1023C0000A460021018B4FF67F73194011430183A8
:1023D00070470A460021018BC1F30E014FF6FF73CF
:1023E00003EA02231943018370470A460021818BC7
:1023F0004FF67F7319401143818370470A460021CD
:10240000818BC1F30E014FF6FF7303EA02231943D8
:10241000818370470A460021018C4FF6FD731940F5
:102420001143018470470A460021018C4FF6F7736F
:1024300019401143018470470A460021018C4FF670
:10244000DF7319404FF6FF7303EA02131943018447
:1024500070470A460021018C4FF67F7319404FF6F2
:10246000FF7303EA02131943018470470A460021EF
:10247000018C4FF6FF5319404FF6FF7303EA022316
:102480001943018470470A460021018C4FF2FF7303
:1024900019404FF6FF7303EA022319430184704782
:1024A0000A460021018C4DF6FF7319404FF6FF7369
:1024B00003EA023319430184704730B50023012435
:1024C0008C40A3B2048C9C430484048C02FA01F572
:1024D000ADB22C43048430BD30B5002304248C40BD
:1024E000A3B2048C9C430484048C02FA01F5ADB2BF
:1024F0002C43048430BD70B50346002000241846E8
:10250000183001258D40ACB21D8CA5431D8409B146
:10251000082909D100EB6100056825F07005056008
:102520000568154305600EE00D1FC5F34E052844F0
:10253000056825F4E045056005684FF6FF7606EA74
:1025400002263543056070BD21B1028842F00202C7
:10255000028004E002884FF6FD731A400280704743
:1025600021B1028842F00402028004E002884FF6A2
:10257000FB731A400280704721B1828842F08002CA
:10258000828004E082884FF67F731A408280704711
:1025900002884FF6F7731A40028002880A430280CD
:1025A000704782884FF68F731A40828082880A4370
:1025B0008280704702894FF6F8731A4002810289BF
:1025C0000A430281704702894FF67F731A400281E5
:1025D00002890A4302817047818470478185704770
:1025E000818670470187704781877047A0F8401047
:1025F000704702884FF6FF431A40028002880A4360
:10260000028070470146888E70470146088F7047E8
:102610000146888F70470146B1F840007047014677
:10262000888C70470146088D704702460020138A47
:102630000B4201D0012000E000207047CA43028213
:10264000704730B50246002000230024158A05EAB1
:102650000103958905EA010413B10CB1012000E0E2
:10266000002030BDCA4302827047000010B5044606
:10267000FB48844209D101218803FFF79BF8002120
:102680004FF48040FFF796F832E0F648844209D1D3
:1026900001214804FFF79BF800214FF40030FFF7B9
:1026A00096F825E0F048844209D101218804FFF71B
:1026B0008EF800214FF48020FFF789F818E0EB48EE
:1026C000844209D10121C804FFF781F800214FF4A9
:1026D0000020FFF77CF80BE0E548844208D1012197
:1026E0000805FFF774F800214FF48010FFF76FF82A
:1026F00010BD2DE9F04786B005460E460024A246DF
:1027000000BFA1460027B08900B100BF2F462C8A28
:102710004CF6FF700440F08804432C82AC894EF6DE
:10272000F3100440B0883189084371890843044399
:10273000AC81AC8A4FF6FF400440B0890443AC82C0
:1027400001A8FEF7B0FFC648874202D1DDF810A00D
:1027500001E0DDF80CA0A88910F4004F08D00AEBC6
:10276000CA0000EB0A1031684900B0FBF1F807E03D
:102770000AEBCA0000EB0A1031688900B0FBF1F8DF
:102780006420B8FBF0F004012009642101FB1089EA
:10279000A88910F4004F08D0322000EBC900B0FB2C
:1027A000F1F000F00700044308E0322000EB0910CC
:1027B0006421B0FBF1F000F00F0004432C8106B05F
:1027C000BDE8F0874FF41651016000218180C1807F
:1027D00001810C21418100218181704710B50246A1
:1027E0000020108A4FF2FF0318400B884C882343C7
:1027F0008C882343CC8823431843108210BD0021CA
:10280000018041808180C180704721B1828942F47A
:102810000052828104E082894DF6FF731A40828162
:102820007047F0B503460024002600250020A1F5DE
:1028300010676A3F00D100BF1846C1F3421401F08F
:102840001F06012707FA06F5012C01D10C3004E020
:10285000022C01D1103000E014301AB107682F4368
:10286000076002E00768AF430760F0BD1AB1838AD2
:102870000B43838202E0838A8B4383827047028A00
:102880004FF6F0731A400282028A0A4302827047AE
:1028900082894FF2FF731A40828182890A438281C2
:1028A000704721B1828942F00202828104E082896C
:1028B0004FF6FD731A4082817047028A4FF6DF732C
:1028C0001A400282028A0A430282704721B1028AB8
:1028D00042F48042028204E0028A4BF6FF731A40FF
:1028E00002827047C1F308028280704701468888DF
:1028F000C0F308007047818941F001018181704770
:10290000028BD2B20283028B42EA01220283704719
:10291000028B02F47F420283028B0A4302837047D8
:1029200021B1828A42F02002828204E0828A4FF63C
:10293000DF731A408282704721B1828A42F010020E
:10294000828204E0828A4FF6EF731A4082827047D7
:1029500021B1828A42F00802828204E0828A4FF624
:10296000F7731A408282704721B1828942F4004293
:10297000828103E08289C2F30E028281704721B115
:10298000828A42F40062828204E0828A4FF2FF73FC
:102990001A4082827047828A4FF6FB731A40828205
:1029A000828A0A438282704721B1828A42F00202FF
:1029B000828204E0828A4FF6FD731A408282704759
:1029C00002460020B1F5007F00D100BF13880B4202
:1029D00001D0012000E00020704701F40072B2F540
:1029E000007F00D100BFCA430280704770B5024625
:1029F0000024002300250020A1F510666A3E00D1C6
:102A000000BFC1F3421501F01F03012606FA03F3CC
:102A1000012D02D19689334006E0022D02D1168A9B
:102A2000334001E0968A33400C12012606FA04F482
:102A30001688344013B10CB1012000E0002070BDB5
:102A400010B500220023A1F510646A3C00D100BF3C
:102A50000A1201249440A3B2DC43048010BD00009C
:102A6000003801400044004000480040004C004055
:102A70000050004000BFBF2080F31188BFF34F8F8C
:102A8000BFF36F8F00BF00BFFEE7001F4FF08073E2
:102A90000360001F21F001030360001F2D4B036042
:102AA000143802602038704700204FF0E0210861A0
:102AB00088612948486107200861704710B5274898
:102AC000006840F47F00254908600846006840F02F
:102AD0007F400860FFF7E8FF002021490860FDF70C
:102AE00043FB002010BD704700BFBF2080F311885A
:102AF000BFF34F8FBFF36F8F00BF19480068401CB2
:102B000017490860704716480068401E144908605D
:102B10000846006820B9002080F3118800BF00BF7C
:102B2000704710B500BFBF2080F31188BFF34F8FEF
:102B3000BFF36F8F00BF00F045FA20B14FF0805017
:102B400006491C39086000BF002080F3118800BFCF
:102B500010BD0000752A00083F19010020ED00E0BB
:102B600028000020434A22F00700434A1060002258
:102B7000414B5A6043F6F872404B5A6000221A608B
:102B8000014643F6F8724A601A460A6070472DE91A
:102B9000F04104464FF0000800F05DFB3848006843
:102BA00020B9FFF7DFFF01203549086044B1083440
:102BB00014F0070F04D004F00700C0F1080004442B
:102BC000002C32D043F6F87084422ED22A4F384679
:102BD000056801E02F462D686868A04202D2286887
:102BE0000028F7D1254885421FD0386800F1080831
:102BF000286838606868001B102810D92E1968688A
:102C0000001B70606C6071681B4800E0006802681F
:102C100052688A42FAD302683260066000BF1949DE
:102C200068680968081A1749086000F049FA4046C0
:102C3000BDE8F08170B506463546B6B1083D2C4674
:102C400000F009FB61680C4800E000680268526807
:102C50008A42FAD30268226004600A4960680968FF
:102C600008440849086000F02BFA70BD0548006868
:102C7000704770479C000020340000203C0000207A
:102C8000300000202C00002000F1080141604FF0CE
:102C9000FF31816000F10801C16001610021016024
:102CA000704700210161704742684A6093688B60F9
:102CB000936859609160086103685B1C036070470A
:102CC00010B502460B685C1C01D1106907E002F1E7
:102CD000080000E04068446824689C42FAD94468CF
:102CE0004C604C68A160886041600A611468641C93
:102CF000146010BD01460A69D1E901309860D1E93C
:102D0000010358605068884201D1886850600020F3
:102D100008611068401E10601068704710B50024EC
:102D200007E004EB8401FE4A02EB8100FFF7ACFFF1
:102D3000641C082CF5D3FB48FFF7A6FFFA48FFF701
:102D4000A3FFFA48FFF7A0FFF948FFF79DFFF948F6
:102D5000FFF79AFFF348F8490860F348F74908601D
:102D600010BD10B50446FFF7BFFEF5480068401CD3
:102D7000F3490860F348006840B9F2480460084627
:102D8000006801280DD1FFF7C9FF0AE0EE4800688E
:102D900038B9EC480068C06AE16A884201D8E9485D
:102DA0000460EA480068401CE849086094F82C1068
:102DB00001208840E64909680843E5490860E16A5E
:102DC00001EB8101D64A02EB8100211DFFF76CFF68
:102DD000FFF799FEDC48006868B1DA480068C06A0D
:102DE000E16A884207D24FF08050DA490860BFF3A9
:102DF0004F8FBFF36F8F10BD2DE9FF5F80460E46EA
:102E00009146DDE90E7A109CA9F10100216B01EBDE
:102E1000800B2BF0070B86B1002507E0715D04F1F4
:102E200034004155705D00B902E06D1C102DF5D3E2
:102E300000BF00214320015502E0002084F8340047
:102E4000082F00D30727E762201DFFF72AFF04F1B0
:102E50001800FFF726FF2461C7F10800A061646233
:102E60000020606484F8480041465846039AFFF702
:102E70000CFE2060BAF1000F01D0CAF80040BDE896
:102E8000FF9F2DE9FF4F85B0804689461746DDE953
:102E900012ABB800FFF77BFE064656B14C20FFF799
:102EA00076FE04460CB1266304E03046FFF7C2FE0E
:102EB00000E000247CB10020CDE900ABCDE9024068
:102EC0003A4649464046089BFFF796FF2046FFF7E3
:102ED00048FF012501E04FF0FF35284609B0BDE865
:102EE000F08F95490968096809B9012100E00021BE
:102EF00021B14FF0FF31984A116006E08E49096810
:102F0000C968C868944A41681160704710B50446A2
:102F1000206BFFF78FFE2046FFF78CFE10BD70B5CB
:102F20000546FFF7E1FD15B98648006800E0284630
:102F30000446201DFFF7DEFE78B9E06A00EB800052
:102F4000774951F8200040B994F82C1001208840AE
:102F50007F49096881437E480160A06A18B104F185
:102F60001800FFF7C7FE79480068401C77490860E1
:102F700074480068844209D1211D6D48FFF794FE12
:102F800076480068401C7549086009E06C48006894
:102F9000401E6B4908602046FFF7B8FFFFF7A1FF0E
:102FA000FFF7B1FD6848006858B166480068844280
:102FB00007D14FF0805067490860BFF34F8FBFF3D0
:102FC0006F8F70BD2DE9F04100276548006800282B
:102FD00068D164480068451C624805608DB9564850
:102FE000D0F8008055480068534908605348C0F83D
:102FF00000805D480068401C5B490860FFF771FF76
:1030000000BF5548006885423BD300BF4A4800686E
:10301000006808B9012000E0002020B14FF0FF3027
:103020004D4908602CE044480068C068C468666880
:10303000B54202D24848066022E0201DFFF75AFE42
:10304000A06A18B104F11800FFF754FE94F82C1090
:10305000012088403E49096808433D490860E16A0B
:1030600001EB81012E4A02EB8100211DFFF71CFEBE
:103070003449E06A0968C96A8842C7D30127C5E7AD
:1030800000BF30480068C06A00EB8000244951F856
:103090002000012800D901273448006808B905F04C
:1030A00029FE06E031480068401C3049086005F000
:1030B00021FE2F48006800B101273846BDE8F081A5
:1030C00070B500240026FFF70FFD25480068401E5C
:1030D000234908600846006800287AD1184800682B
:1030E000002876D04FE01148C068C46804F1180089
:1030F000FFF700FE201DFFF7FDFD94F82C100120C6
:10310000884013490968084311490860E16A01EBE6
:103110008101034A02EB8100211DFFF7C5FD29E073
:103120009440002034410020484100205C410020B0
:103130007041002084410020780000207C000020A5
:103140004C000020440000205800002068000020AF
:103150005400002004ED00E06C0000204800002036
:103160007400002050000020640000205C0000205B
:1031700060000020F849E06A0968C96A884202D301
:103180000120F6490860F648006808B9012000E00F
:1031900000200028A7D00CB1FFF7A3FEF148056876
:1031A00065B100BFFFF70EFF10B10120EB490860C9
:1031B0006D1E002DF6D10020EA490860E74800683E
:1031C00038B101263007E8490860BFF34F8FBFF3DD
:1031D0006F8FFFF798FC304670BD2DE9F041054632
:1031E0000E46E2480768DC480068001DFFF782FDD4
:1031F00050B9D948006890F82C1001208840DC496B
:1032000009688143DA480160681C07D136B1D248A9
:103210000168091DD748FFF747FD1AE07C19CE4821
:1032200000684460BC4207D2CB480168091DD248FF
:103230000068FFF745FD0CE0C7480168091DCF484D
:103240000068FFF73DFDCE480068844201D2CC48BB
:103250000460BDE8F081CB480068401CC9490860A3
:1032600070472DE9F047044688464FF00009FFF704
:10327000F2FFBE480668206800EB08052068B042EF
:1032800007D92068A8420BD9B54209D94FF00109E6
:1032900006E02068A84201D8B54201D94FF00109E3
:1032A0002560B9F1000F03D0A81B0021FFF795FF9F
:1032B000FFF706FF07463FB94FF08050AA49086064
:1032C000BFF34F8FBFF36F8FBDE8F08770B5044633
:1032D000002544B1FFF7BFFF00212046FFF77DFF27
:1032E000FFF7EEFE05463DB94FF080509E4908605D
:1032F000BFF34F8FBFF36F8F70BD70B50446FFF7FC
:10330000F3FB14B99448006800E020460646F56ACD
:10331000FFF7F9FB284670BD70B5024600BFBF2518
:10332000EFF3118485F31188BFF34F8FBFF36F8FD5
:1033300000BF214612B9884C246800E01446234699
:10334000D86A00BF81F3118800BF70BD2DE9F04736
:1033500080460D464FF00009082D00D30725FFF7E2
:10336000C3FBB8F1000F02D17B48006800E0404683
:103370000446E66AAE4251D0B5420BD976480068A1
:1033800084420DD074480068C06AA84208D84FF043
:10339000010905E070480068844201D14FF001093D
:1033A000E76AE562A06910F0004F02D1C5F108009C
:1033B000A06107EB8701744A02EB810160698842D2
:1033C00001D1012000E00020E0B1201DFFF792FCB8
:1033D00030B90120B84066490968814364480160FA
:1033E00094F82C100120884061490968084360491D
:1033F0000860E16A01EB8101634A02EB8100211D53
:10340000FFF752FCB9F1000F07D04FF0805056493A
:103410000860BFF34F8FBFF36F8F00BFFFF773FBE1
:10342000BDE8F0875748006818B101204B49086093
:103430001DE00020494908604D480068B0FA80F05E
:10344000C0F11F0101EB81024F4B03EB8200426888
:103450005268426000F108024368934202D1426818
:10346000526842604268D2683B4B1A6000BF7047A6
:1034700070B50546FFF738FB15B93748006800E01E
:1034800028460446201DFFF735FC78B9E06A00EBBA
:1034900080003D4951F8200040B994F82C100120DB
:1034A000884033490968814331480160A06A18B1F6
:1034B00004F11800FFF71EFC211D2E48FFF7F4FB56
:1034C00094F84800012802D1002084F84800FFF752
:1034D0001AFB2E48006828B1FFF706FBFFF701FD35
:1034E000FFF711FB1C480068844217D12748006889
:1034F00040B14FF080501C490860BFF34F8FBFF3BD
:103500006F8F0BE01B48006821490968884203D18E
:1035100000201149086001E0FFF784FF70BD10B57D
:10352000014600200A46134C5369A34201D10123EE
:1035300000E0002373B10A4C936AA34201D1012336
:1035400000E0002333B9936A0BB9012300E00023A4
:1035500003B1012010BD00004400002060000020E5
:103560005C4100205C00002004ED00E050000020E1
:1035700054000020844100207C00002078000020BE
:103580006C000020740000209440002058000020AF
:103590004C00002070B505462C46FE480068844269
:1035A0002BD054B3FFF7A0FA2046FFF7B8FF10B3B3
:1035B000201DFFF79FFB94F82C1001208840F6494E
:1035C00009680843F4490860E16A01EB8101F34AA4
:1035D00002EB8100211DFFF767FBEE49E06A0968F5
:1035E000C96A884207D34FF08050ED490860BFF3A5
:1035F0004F8FBFF36F8FFFF786FA70BD2DE9F04153
:1036000006460027344600BFBF21EFF3118081F347
:103610001188BFF34F8FBFF36F8F00BF0546204661
:10362000FFF77DFF20B3DF480068E0B9D949E06AC1
:103630000968C96A884200D30127201DFFF75AFB99
:1036400094F82C1001208840D34909680843D249D6
:103650000860E16A01EB8101D04A02EB8100211D83
:10366000FFF722FB04E004F11801CF48FFF71CFB31
:1036700000BF85F3118800BF3846BDE8F08110B562
:1036800016E0FFF731FAC948C068C468201DFFF78B
:1036900031FBC7480068401EC5490860C54800683E
:1036A000401EC4490860FFF72EFA2046FFF72EFCA3
:1036B000C04800680028E4D110BD00BFFFF7DFFF5D
:1036C000B64800680128F9D94FF08050B449086025
:1036D000BFF34F8FBFF36F8FF0E71CB5B6480021E3
:1036E0000B468022CDE90010B4A1B648FFF7C9FB14
:1036F0000446012C14D100BFBF2080F31188BFF312
:103700004F8FBFF36F8F00BF4FF0FF30AE4908609F
:103710000120AE4908600020AD490860FFF7CEF9EE
:103720001CBD10B500BFBF2080F31188BFF34F8FC1
:10373000BFF36F8F00BF0020A4490860FFF7D3F9E3
:1037400010BDA349086870470021A14A106870475E
:10375000974800687047014611B98E48006800E03C
:103760000846024602F13400704770B505460C4623
:103770008848016818312846FFF7A2FA012120463F
:10378000FFF72BFD70BD70B506460C46154644F09C
:1037900000408049096888617E48016818313046D8
:1037A000FFF782FA01212846FFF717FD70BD70B5BB
:1037B0000646F068C46804F11800FFF79BFA7948E0
:1037C0000068A8B9201DFFF795FA94F82C10012085
:1037D00088407149096808436F490860E16A01EB54
:1037E00081016E4A02EB8100211DFFF75DFA04E0C2
:1037F00004F118016C48FFF757FA6649E06A096856
:10380000C96A884204D9012501207249086000E094
:103810000025284670BD70B505460E4646F00040AE
:103820002860EC682846FFF765FA201DFFF762FA6A
:1038300094F82C10012088405749096808435649DC
:103840000860E16A01EB8101544A02EB8100211D0D
:10385000FFF72AFA4F49E06A0968C96A884202D923
:1038600001205C49086070BD10B50446FFF73CF9C3
:10387000594800682060564800686060FFF743F9C7
:1038800010BD554909680160514909684160704798
:1038900070B506460C46FFF727F94D480268706878
:1038A000131A2068401C01D1002517E04A493068EE
:1038B0000968884204D07068904201D801250DE063
:1038C0002068984207D92068C01A20603046FFF768
:1038D000D8FF002502E0002020600125FFF713F942
:1038E000284670BD01203B49086070472949096896
:1038F000886928490968C96AC1F10801254A12681E
:103900009161704770B506460D46FFF7EDF8214806
:103910000068406C88B901201E49096881F8480098
:103920005DB101212846FFF758FC4FF080501C493B
:103930000860BFF34F8FBFF36F8FFFF7E4F8FFF717
:10394000D3F814480068446C4CB126B100201149EA
:103950000968486403E0601E0E4909684864002055
:103960000C49096881F84800FFF7CDF8204670BD82
:103970002DE9F0410746884614461D46FFF7B4F886
:103980000448006890F8480002283ED001490968C0
:1039900024E0000044000020540000209440002057
:1039A00004ED00E0740000205C4100207041002024
:1039B0004C000020480000207000002049444C4585
:1039C00000000000BB3600086C00002058000020FA
:1039D00050000020600000206400002001F144003D
:1039E000496CB94301600120B249096881F8480077
:1039F0005DB101212846FFF7F0FB4FF08050AE4942
:103A00000860BFF34F8FBFF36F8FFFF77CF8FFF7AE
:103A10006BF81CB1A7480068406C2060A54800689E
:103A200090F84800022801D0002608E0A149096862
:103A300001F14400496C21EA0801016001260020DF
:103A40009C49096881F84800FFF75DF83046BDE8F9
:103A5000F0812DE9F04781460D4616461F464FF08E
:103A6000010A4C46FFF740F80FB1606C386094F8DB
:103A70004880022084F84800052E17D2DFE806F0BF
:103A80001503070B0D00606C284360640FE0606C49
:103A9000401C60640BE0656409E0B8F1020F01D0DE
:103AA000656401E04FF0000A01E000E000BF00BFE4
:103AB000B8F1010F22D1201DFFF71CF994F82C104A
:103AC000012088407D49096808437C490860E16A13
:103AD00001EB81017A4A02EB8100211DFFF7E4F836
:103AE0007449E06A0968C96A884207D94FF0805072
:103AF00071490860BFF34F8FBFF36F8FFFF703F873
:103B00005046BDE8F0872DE9F84F83460D4616462E
:103B10001F46DDF828A0012000905C4600BFBF21B1
:103B2000EFF3118081F31188BFF34F8FBFF36F8FD5
:103B300000BF81460FB1606C386094F84880022065
:103B400084F84800052E17D2DFE806F01503070BAE
:103B50000D00606C284360640FE0606C401C606482
:103B60000BE0656409E0B8F1020F01D0656401E083
:103B70000020009001E000E000BF00BFB8F1010F9D
:103B80002CD150480068A8B9201DFFF7B3F894F86D
:103B90002C100120884049490968084347490860BA
:103BA000E16A01EB8101464A02EB8100211DFFF72A
:103BB0007BF804E004F118014348FFF775F83D492C
:103BC000E06A0968C96A884208D9BAF1000F02D0D0
:103BD0000120CAF8000001203C49086000BF89F3B9
:103BE000118800BF0098BDE8F88F2DE9F041054627
:103BF0000E462C4600BFBF21EFF3118081F31188E0
:103C0000BFF34F8FBFF36F8F00BF074694F8488014
:103C1000022084F84800606C401C6064B8F1010F19
:103C200029D128480068A8B9201DFFF763F894F847
:103C30002C10012088402149096808431F49086069
:103C4000E16A01EB81011E4A02EB8100211DFFF7B1
:103C50002BF804E004F118011B48FFF725F815497B
:103C6000E06A0968C96A884205D90EB1012030604E
:103C700001201649086000BF87F3118800BFBDE826
:103C8000F08170B5054615B90A48006800E028467D
:103C90000646FEF729FF96F84800022804D10020C6
:103CA00086F84800012400E00024FEF72CFF20469F
:103CB00070BD00004400002004ED00E0540000202E
:103CC00094400020740000205C410020600000202F
:103CD0000146F94A12688A4203D3F74A1268501A19
:103CE00004E0F64A521AF44B1B68D0187047F248A9
:103CF0000068704770B505460E46EF48A0F81851A9
:103D0000002405E0315DEC4818300155601C84B298
:103D1000AC42F7DB002240F22551E948FEF781FD75
:103D2000012240F22661E648FEF77BFD70BD70B5CA
:103D300004460D461646AA21DF4880F89810DD217A
:103D400080F8991080F89A4080F89B5080F89C6029
:103D500090F8981090F899004840D74991F89A1037
:103D60004840D54991F89B104840D34991F89C10A0
:103D70004140D14880F89D1000F198010620FFF7DE
:103D8000B9FF70BD0121CC4880F81C11002180F8DA
:103D90001E11A0F82011704700B50246C648B0F8C1
:103DA000240108B9FFF7EEFFC34890F81C0100F0AA
:103DB0000F0009287ED2DFE800F0F4051B314B65C7
:103DC000819DC300AA2A0ED10221BB4880F81C1194
:103DD00090F81E015040B84981F81E010A21B648EA
:103DE000A0F8241103E00021B348A0F82411D9E081
:103DF000DD2A0ED10321B04880F81C1190F81E0175
:103E00005040AD4981F81E010A21AB48A0F82411A9
:103E100003E00021A848A0F82411C3E00421A6482B
:103E200080F81C110A21A0F82411B0F82011B0F874
:103E30002001401C83B2A048A0F8203158304254E1
:103E4000583890F81E0150409B4981F81E01A9E0A6
:103E50000521994880F81C110A21A0F82411B0F816
:103E60002011B0F82001401C83B29348A0F8203103
:103E700058304254583890F81E0150408E4981F80D
:103E80001E018FE006218C4880F81C110A21A0F841
:103E90002411B0F82011B0F82001401C83B28648EC
:103EA000A0F8203158304254583890F81E01504044
:103EB000814900E075E081F81E0173E007217E482A
:103EC00080F81C110A21A0F8241180F81D21B0F8F7
:103ED0002011B0F82001401C83B27748A0F82031AF
:103EE00058304254583890F81E015040724981F8B9
:103EF0001E0157E0704890F81D01401EC1B26E4887
:103F000080F81D1190F81D0118B908216A4880F841
:103F10001C110A216848A0F82411B0F82011B0F84B
:103F20002001401C83B26448A0F82031583042542C
:103F3000583890F81E0150405F4981F81E0131E069
:103F40005D4890F81E01904226D100215A48A0F801
:103F5000221111E05848B0F822115830415C58380D
:103F6000B0F82231D830C154D838B0F82201401C02
:103F700081B25148A0F822114F48B0F8221190F8B0
:103F80005B00001D8142E5DB01214B4880F82611D2
:103F90000021A0F8241103E000214748A0F82411D3
:103FA00000E000BF00BF00BD70B505460E464248A8
:103FB000A0F82852002404E0315D42480155601CFD
:103FC00084B2AC42F8DB012240F226613E48FEF7A3
:103FD00028FC70BD70B504460D461646AA21364829
:103FE00080F8A811DD2180F8A91180F8AA4180F895
:103FF000AB5180F8AC6190F8A81190F8A901484045
:104000002D4991F8AA1148402B4991F8AB1148402D
:10401000294991F8AC114140274880F8AD1100F5CD
:10402000D4710620FFF7C0FF70BD0121224880F83F
:104030002C12002180F82E12A0F83012704710B513
:1040400004461D48B0F8340208B9FFF7EEFF1A48DD
:1040500090F82C0200F00F00092872D2DFE800F07F
:1040600071051B3B56728DAAD100AA2C0ED10221DC
:10407000114880F82C1290F82E0260400E4981F809
:104080002E020A210C48A0F8341203E000210A484D
:10409000A0F83412FFE0DD2C18D10321064880F887
:1040A0002C1290F82E026040034981F82E020A215A
:1040B0000148A0F834120DE0B8410020005C26054C
:1040C00000380140E0420020004C00400021FE4842
:1040D000A0F83412DFE00421FB4880F82C120A21FA
:1040E000A0F83412B0F83012B0F83002401C82B29E
:1040F000F548A0F8302200F5B4704454F24890F826
:104100002E026040F04981F82E02C4E00521EE48FD
:1041100080F82C120A21A0F83412B0F83012B0F84E
:104120003002401C82B2E848A0F8302200F5B4709A
:104130004454E54890F82E026040E34981F82E028D
:10414000A9E0A7E00621E04880F82C120A21A0F897
:104150003412B0F83012B0F83002401C82B2DA48A3
:10416000A0F8302200F5B4704454D74890F82E02DD
:104170006040D54981F82E028DE00721D24880F8B1
:104180002C120A21A0F8341280F82D42B0F8301217
:10419000B0F83002401C82B2CB48A0F8302200F5C3
:1041A000B4704454C84890F82E026040C64981F863
:1041B0002E0270E0C44890F82D02401EC1B2C248E1
:1041C00080F82D1290F82D0218B90821BE4880F809
:1041D0002C120A21BC48A0F83412B0F83012B0F802
:1041E0003002401C82B2B848A0F8302200F5B4700A
:1041F0004454B54890F82E026040B34981F82E022D
:1042000049E0B14890F82E02A0423ED10021AE48CC
:10421000A0F8321213E0AC48B0F8321200F5B470D6
:10422000415CA948B0F8322200F5F4708154A648E8
:10423000B0F83202401C81B2A348A0F83212A24862
:10424000B0F8321290F86B01001D8142E3DB9E480A
:1042500090F8E90188B99C4890F8EA0101280CD14E
:104260009A4805F0D6F920229949984805F0B4F902
:1042700097492020FFF798FE0BE00121924880F833
:1042800036120021A0F8341203E000218E48A0F875
:10429000341200E000BF00BF10BD70B505460E46E9
:1042A0008948A0F83853002405E0315D88484C3037
:1042B0000155601C84B2AC42F7DB012240F226615A
:1042C0008448FEF7AEFA70BD70B504460D4616463A
:1042D00055217D4880F8B812AA2180F8B91280F8DB
:1042E000BA4280F8BB5280F8BC6290F8BA1290F8DB
:1042F000BB024840744991F8BC124140724880F8B2
:10430000BD1200F52E710620FFF7C7FF70BD012119
:104310006D4880F83C13002180F83E13A0F840134C
:10432000704700B502466848B0F8440308B9FFF783
:10433000EEFF654890F83C0300F00F00072874D2A8
:10434000DFE800F0A40413223D587400552A07D179
:1043500002215D4880F83C130A21A0F8441303E0D1
:1043600000215948A0F8441391E0AA2A07D103215B
:10437000554880F83C130A21A0F8441303E00021BB
:104380005148A0F8441382E004214F4880F83C13C0
:104390000A21A0F84413B0F84013B0F84003401CC1
:1043A00083B24948A0F8403300F51E704254464895
:1043B00090F83E035040444981F83E0367E00521F0
:1043C000414880F83C130A21A0F84413B0F8401388
:1043D000B0F84003401C83B23B48A0F8403300F5DE
:1043E0001E704254384890F83E035040364981F8D8
:1043F0003E034CE00621344880F83C130A21A0F823
:104400004413B0F84013B0F84003401C83B22E4868
:10441000A0F8403300F51E7042542B4890F83E033C
:104420005040294981F83E0331E02FE0264890F8BA
:104430003E03904225D100212348A0F8421313E007
:104440002148B0F8421300F51E70415C1E48B0F8D8
:10445000423300F53E70C1541B48B0F84203401C83
:1044600081B21948A0F842131748B0F84203032854
:10447000E6DB0121144880F846130021A0F844131C
:1044800003E000211048A0F8441300E000BF00BF83
:1044900000BD10B5FFF72BFC0B49486042E00A480D
:1044A00090F8460310F0010F2BD00021064880F849
:1044B000461390F8F80220BB034890F8F90201284F
:1044C0001FD1014808E00000B841002000000208A8
:1044D000A44300200050004090F8FA0288B901225D
:1044E00011460020FFF7F0FEF74890F8480320F04F
:1044F0000100401CF44981F848033220FEF7E6FE33
:1045000011E0F1494868FFF7E3FB41F28831884246
:1045100008D9ED4890F8480320F00100EA4981F8F5
:10452000480300E0BBE700BF10BD70B505460C4670
:10453000192D79D2DFE805F0780D2135608CB7F4BC
:10454000F2F1F0EFEEEDECEBEAE9E8E7E6E5E4E3C3
:10455000E200012C08D10020DC4908604FF0010086
:10456000DB49C1F8800107E00120D84908604FF01D
:104570000000D749C1F880017DE2012C08D100205C
:10458000D44908604FF00100D149C1F8800107E02B
:104590000120D04908604FF00000CD49C1F88001EA
:1045A00069E2012C15D10020CB4908604FF00101D0
:1045B000C54880F84C134FF0000180F84D13A0F867
:1045C0004E134FF0010180F85013C448FDF770FD01
:1045D00011E00120C04908604FF00001BF48FDF71D
:1045E00067FD0021B84880F84C1380F84D13A0F8FF
:1045F0004E1380F850133EE2012C16D10020B8492A
:1046000008604FF00101B04880F84C134FF00001F2
:1046100080F84D13A0F84E134FF0010180F85213AB
:10462000AE48FDF745FD12E024E20120AC490860E8
:104630004FF00001A948FDF73BFD0021A24880F89A
:104640004C1380F84D13A0F84E1380F8521312E269
:10465000012C15D10020A34908604FF001019A48B0
:1046600080F84C134FF0000180F84D13A0F84E1362
:104670004FF0010180F854139848FDF719FD11E03F
:104680000120984908604FF000019448FDF710FDA3
:1046900000218D4880F84C1380F84D13A0F84E137C
:1046A00080F85413E7E1012C15D100208E490860F1
:1046B0004FF00101844880F84C134FF0000180F85E
:1046C0004D13A0F84E134FF0010180F856138348A4
:1046D000FDF7EEFC11E00120834908604FF0000176
:1046E0007E48FDF7E5FC0021774880F84C1380F800
:1046F0004D13A0F84E1380F85613BCE1A6E191E1EA
:104700007CE171E15CE151E146E124E102E1D0E0CC
:10471000C5E0BAE0AFE08EE06DE04CE02BE0FFE7F3
:10472000012C15D10020714908604FF00101664845
:1047300080F84C134FF0000180F84D13A0F84E1391
:104740004FF0010180F858136448FDF7B1FC11E007
:104750000120664908604FF000016048FDF7A8FCA1
:104760000021594880F84C1380F84D13A0F84E13DF
:1047700080F858137FE1012C0ED100205C490860BD
:1047800001465148A0F88C134FF0010180F88A13BC
:104790005848FDF78DFC0DE00120554908604FF0A9
:1047A00000015448FDF784FC0021474880F88A1333
:1047B000A0F88C135FE1012C0ED100204E49086057
:1047C00001464148A0F88C134FF0010180F88A138C
:1047D0004848FDF76DFC0DE00120474908604FF0A7
:1047E00000014448FDF764FC0021374880F88A1333
:1047F000A0F88C133FE1012C0ED100203F49086046
:1048000001463148A0F88C134FF0010180F88A135B
:104810003848FDF74DFC0DE00120384908604FF0A5
:1048200000013448FDF744FC0021274880F88A1332
:10483000A0F88C131FE1012C0ED100203049086034
:1048400001462148A0F88C134FF0010180F88A132B
:104850002848FDF72DFC0DE00120294908604FF0A4
:1048600000012448FDF724FC0021174880F88A1332
:10487000A0F88C13FFE0012C03D10020214908602F
:1048800002E001201F490860F5E0012C03D100205F
:104890001D49086002E001201B490860EBE0012C83
:1048A00003D100201949086002E00120174908607F
:1048B000E1E0012C03D100201549086002E001204D
:1048C00013490860D7E00000B8410020AC812342C2
:1048D00000802142848121429C81234200080040C3
:1048E0009881234294812342908123428C812342E8
:1048F00088012242000400408401224280012242B9
:10490000A88123429801234294012342900123422B
:104910008C012342012C0BD10020FB4908604FF091
:104920000101FA4880F88613F948FDF7C1FB11E050
:104930000021F748FDF7BCFB0120F34908604FF068
:104940000001F24880F88613A0F888130846F14960
:10495000C1F880018FE0012C0BD10020EE490860E6
:104960004FF00101E94880F88613E948FDF7A0FB04
:1049700011E00021E648FDF79BFB0120E6490860B5
:104980004FF00001E14880F88613A0F8881308462C
:10499000E049C1F880016EE0012C03D10120DF491C
:1049A000086002E00020DD49086064E0012C03D1CA
:1049B0000020DB49086002E00120D94908605AE084
:1049C000012C08D10020D74908604FF00100D149DF
:1049D000C1F8800107E00120D24908604FF00000D3
:1049E000CC49C1F8800146E0012C03D10020CE491A
:1049F000086002E00120CC4908603CE0012C08D1AD
:104A00000020CA4908604FF00100C249C1F8800186
:104A100007E00120C54908604FF00000BD49C1F81A
:104A2000800128E0012C08D10020C14908604FF026
:104A30000100B849C1F8800107E00120BC490860C5
:104A40004FF00000B349C1F8800114E0012C08D1F7
:104A50000020B84908604FF00100AE49C1F880015C
:104A600007E00120B34908604FF00000A949C1F8F0
:104A7000800100E000BF00BF70BD092860D2DFE800
:104A800000F0050F19232D37414B5500012903D1A3
:104A90000122A94B1A6002E00022A74B1A6050E0E5
:104AA000012903D10122A54B1A6002E00022A34B89
:104AB0001A6046E0012903D10122A14B1A6002E0ED
:104AC00000229F4B1A603CE0012903D101229D4B3B
:104AD0001A6002E000229B4B1A6032E0012903D1E8
:104AE0000122994B1A6002E00022974B1A6028E0DD
:104AF000012903D10122954B1A6002E00022934B59
:104B00001A601EE0012903D10122914B1A6002E0D4
:104B100000228F4B1A6014E0012903D101228D4B32
:104B20001A6002E000228B4B1A600AE0012903D1CF
:104B30000122894B1A6002E00022874B1A6000E0D4
:104B400000BF00BF70472DE9F047804689461646F2
:104B50001C46002500270CE049464046FCF7CBFBED
:104B6000B04201D1681CC5B20A20FEF7AFFB781C29
:104B7000C7B2A742F0DB95FBF4F0C5B2012D02D11C
:104B80000120BDE8F0870020FBE72DE9F0478046D3
:104B9000894614461D46002700260CE0494640463B
:104BA000FCF7A9FBA04201D1781CC7B20120FEF797
:104BB0008DFB701CC6B2AE42F0DB012F02DB012080
:104BC000BDE8F0870020FBE72DE9F04781468A46E3
:104BD00014461D460027B846FDF786FF01214C48C4
:104BE000FDF766FA51464846FCF785FB064605E0A8
:104BF000781C0746B0F5801F00D305E051464846B3
:104C0000FCF779FBB042F3D000BF00203F49886039
:104C100005E0781C0746B0F5801F00D305E051463B
:104C20004846FCF768FBB042F3D100BF002705E01F
:104C3000781C0746B0F5801F00D305E05146484672
:104C4000FCF759FBB042F3D000BF3048D0F80880E1
:104C500000212F48FDF72CFAFDF755FF601B40455A
:104C600005D86019404502D30120BDE8F087002037
:104C7000FBE72DE9F04705460E4617469846DDF856
:104C800020904FF0000A002400BF0AF10100C0B2DA
:104C90008246484500DD0EE043463A463146284606
:104CA000FFF792FF012801D1012404E06420FEF700
:104CB0000DFB002CE9D000BF2046BDE8F0872DE9B0
:104CC000F04781468A4614461D460027B846FDF740
:104CD0000BFF01212148FDF7EBF951464846FCF74F
:104CE0000AFB064605E0781C0746B0F5801F00D396
:104CF00005E051464846FCF7FEFAB042F3D000BF4B
:104D000000200249C86031E088812342B841002078
:104D10000004004000802142B4012242A4812142CB
:104D200084012342A0812342800123429401224234
:104D3000900122428C0122429C812242BC012442E9
:104D4000B8012442B4012442908122428C81224243
:104D500084812242AC01214280812242000800402D
:104D6000781C0746B0F5801F00D305E05146484641
:104D7000FCF7C1FAB042F3D100BF002705E0781C70
:104D80000746B0F5801F00D305E051464846FCF7C2
:104D9000B2FAB042F3D000BF6B48D0F80C800021CB
:104DA0006A48FDF785F9FDF7AEFE601B404505D862
:104DB0006019404502D30120BDE8F0870020FBE7E1
:104DC0002DE9F04107460D4616460024A0460BE0AB
:104DD0003888C0F30B00204484B20A20FEF776FA2C
:104DE00008F1010000F0FF08B8F1050FF0DB052025
:104DF00094FBF0F084B2A81BA04205DAA819A042E7
:104E000002DD0120BDE8F0810020FBE74E4991F86A
:104E10005013012901D14E4908604B4991F85213B2
:104E2000012901D14A490860474991F854130129E1
:104E300001D147490860444991F85613012901D12D
:104E400043490860404991F85813012901D140496C
:104E5000086070473C4890F8620300F003013A484C
:104E600090F86203C0F38100814201D101207047B4
:104E70000020FCE701460A291AD2DFE801F0050705
:104E8000090B0D0F11131517302012E0312010E01F
:104E900032200EE033200CE034200AE0352008E018
:104EA000362006E0372004E0382002E0392000E018
:104EB00000BF00BF7047F0B504460D462E46B2B2A3
:104EC0000A2092FBF0F100FB112087B23846FFF771
:104ED000D1FF20710A2092FBF0F082B20A2092FBEF
:104EE000F0F100FB112087B23846FFF7C3FFE070F6
:104EF0000A2092FBF0F082B20A2092FBF0F100FB54
:104F0000112087B23846FFF7B5FFA0700A2092FB48
:104F1000F0F082B20A2092FBF0F100FB112087B280
:104F20003846FFF7A7FF60700A2092FBF0F082B2CC
:104F30000A2092FBF0F100FB112087B23846FFF700
:104F400099FF2070F0BD0000B8410020000800402B
:104F500080812142774890F85F0300F00101754895
:104F600090F85C0361F35F00724991F8621360F39B
:104F70000101704880F86213704710B54FF400715A
:104F80006D48FCF7B8F960BB6A4890F85A0310F016
:104F9000010F2AD1674890F86203C0F3810001280D
:104FA00006D0644890F86203C0F3810002281CD147
:104FB000604890F85B03401CC1B25E4880F85B1308
:104FC00090F85B030A2810DD0A215A4880F85B1329
:104FD00090F85A0320F00100401C564981F85A030A
:104FE00003E00021534880F85B1308215348FCF785
:104FF00082F901281FD14F4890F85C0310F0010F8F
:1050000014D14C4890F85D03401CC1B2494880F867
:105010005D1390F85D030A2808DD464890F85C03AC
:1050200020F00100401C434981F85C030021414805
:1050300080F85E131DE03F4890F85C0310F0010F0C
:1050400013D03C4890F85E03401CC1B2394880F848
:105050005E1390F85E030A2807DD364890F85C037B
:1050600020F00101334880F85C130021314880F8BA
:105070005D1304213148FCF73EF901281FD12D486A
:1050800090F85F0310F0010F14D12A4890F86003E4
:10509000401CC1B2274880F8601390F860030A28CA
:1050A00008DD244890F85F0320F00100401C2149EE
:1050B00081F85F0300211F4880F861131DE01D483F
:1050C00090F85F0310F0010F13D01A4890F86103B5
:1050D000401CC1B2174880F8611390F861030A2898
:1050E00007DD144890F85F0320F00101114880F8B3
:1050F0005F1300210F4880F86013FFF72BFF10BDEE
:1051000000BFFEF7F4FD0546FCF7B9F9FFF735FFE0
:105110002846FEF7DDFD322806D22846FEF7D8FDE8
:10512000C0F13200C4B200E000242046FEF7CEF801
:10513000E7E70000B8410020001C014000200140CA
:105140002DE9F04704460D4617461E46DDF820803F
:105150004FF00009CA4600BF09F10100C0B2814604
:10516000404502DD0020BDE8F0873A46294620464A
:10517000FFF7AAF8FEF7BBFDF949486116E0F848C9
:1051800090F8460310F0010F10D0F54890F8F8029F
:10519000A0420BD1F24890F8F902A84206D1F0489B
:1051A00090F8FA02012801D1824605E0EC494869ED
:1051B000FEF78EFDB042E2D300BF0021E84880F840
:1051C0004613BAF1000FC7D080F846130120CAE792
:1051D0002DE9FF5F804689461C46DDE90F5BDDF85F
:1051E00038A0002600270021DD4880F8261180F82D
:1051F000DC10BAF1000F2ED100BF701CC0B2064601
:10520000A84203DD002004B0BDE8F09F49464046B7
:10521000029AFEF78CFDFEF76AFDD14908610CE0A9
:10522000CF4890F8260110F0010F06D0CC4890F836
:10523000DC00584501D1012705E0C9490869FEF79E
:1052400047FDA042ECD300BF0021C54880F82611DD
:10525000002FD2D026E000BF701CC0B20646A84284
:1052600001DD0020CFE749464046029AFEF75FFD88
:10527000FEF73DFDBA49086107E0B94890F82601FC
:1052800010F0010F01D0012705E0B5490869FEF7CC
:105290001FFDA042F1D300BF0021B14880F82611C4
:1052A000002FD9D00021AE4880F826110120AAE7AE
:1052B0003EB50024BEE00021A94880F88F130120EC
:1052C0000521CDE900014FF4FA7302220146029054
:1052D0000020FFF77DFF012870D1A14890F89023AE
:1052E000121DD83011181020FEF75EFE00219C48D8
:1052F00080F8901340E09A4890F8620300F00300B1
:10530000012818D1964890F89013091DD830415CB7
:10531000D83890F89003934A1268105C814201D00B
:10532000012000E000208E4991F88F1308438C493A
:1053300081F88F0318E08A4890F89013091DD8303F
:10534000415CD83890F890031030864A1268105C9F
:10535000814201D0012000E00020814991F88F13A3
:1053600008437F4981F88F037D4890F89003401CE3
:10537000C1B27B4880F89013794890F890030828D0
:10538000B9DB0021764880F8901342E0744890F829
:10539000620300F0030001281AD1714890F89013BD
:1053A0001031D830415CD83890F890030C306D4AF9
:1053B0001268105C814202D0012001E034E000203C
:1053C000674991F88F130843654981F88F0318E006
:1053D000634890F890131031D830415CD83890F879
:1053E00090031C305F4A1268105C814201D001209A
:1053F00000E000205A4991F88F130843584981F87A
:105400008F03574890F89003401CC1B2544880F86D
:105410009013534890F890030428B7DB504890F855
:105420008F0308B901203EBD4FF47A70FDF74EFF9F
:10543000601CC4B2052CFFF63EAF0020F3E70EB5AA
:10544000FFF727F800BFFCF71AF8454890F8360236
:1054500010F0010F3DD00021414880F836120120A4
:1054600041490860024611464FF00200FEF72CFF4A
:105470004FF47A70FDF72AFF012211461046FEF71D
:10548000A9FD374890F8480320F00200801C3449F9
:1054900081F8480301203549C1F8B001344908605A
:1054A0004FF000003349C1F8840142F21070FDF75B
:1054B0000DFF01200521CDE90001642302460146CC
:1054C00002900020FFF784FE254890F8EA1180F84A
:1054D0004913234890F85A0310F0010F25D02048B3
:1054E00090F84803C0F34000F8B901201E49086055
:1054F0004FF003004FF47A734FF001021146009011
:105500004FF00200FFF71CFE4FF47A70FDF7DEFE4D
:10551000134890F8480320F00200801C104981F8DD
:10552000480301210E4880F849130D4890F84803BC
:10553000C0F34000002802F02E85094890F8491376
:1055400090F84A0381423FF47EAF054890F8491332
:1055500080F84A1390F84903422882F019850BE03D
:10556000B841002080000020B00124420000214208
:10557000BC01214200002342DFE810F00A1542007E
:105580008D00B90007015A016801AE01F4019302D0
:105590001F035A039503D0030B0446046E04B104A1
:1055A000F40480050C069C06C7061D077307C50793
:1055B0000B0831085C08820861093C0A1C0BF70BD8
:1055C000480C700CC10CE50C360D870DE10D050E75
:1055D000640E880ED50E210F770FEA0F2E103C10A7
:1055E0009610A41031115511A611CA116512981206
:1055F000CA1208132C134E137913C8137014C7144E
:105600000120FE490860FE49C1F8BC014FF00000CE
:10561000FC4908604FF4FA60FDF758FE0120FA4992
:10562000C1F88401F94801682020FEF7BDFC41F271
:105630009410FDF74BFE0021F54880F88F130120F0
:10564000052100224FF4FA73CDE9002102900246B1
:1056500001460020FFF7BCFD012809D103204FF4CB
:105660007A730122114600901046FFF769FD0CE0A5
:1056700003204FF47A730022012100900846FFF7BF
:105680005FFD0121E24880F893130221E04880F891
:10569000491302F07EBCFFF70BFE012809D103205D
:1056A0004FF47A730122022100901046FFF748FD63
:1056B0000CE003204FF47A730022022100900120B5
:1056C000FFF73EFD0121D24880F89313D04890F8AF
:1056D000620300F00300012804D10621CC4880F8C1
:1056E000491303E00321CA4880F84913D1E7012098
:1056F000052100224FF49673CDE900210290032288
:1057000001460020FFF764FD01282CD1C148018823
:10571000BF48A0F89613B0F8960300B20146029075
:10572000BD48FFF7C8FBF82240F24441B948FFF7F3
:1057300047FB012809D103204FF47A730122014667
:1057400000901046FFF7FCFC1AE003204FF47A7338
:105750000022014600900120FFF7F2FC0121AC4835
:1057600080F893130CE003204FF47A730022014673
:1057700000900120FFF7E4FC0121A54880F8931375
:105780000421A34880F8491383E702200521002261
:105790004FF49673CDE900210290042201210020EC
:1057A000FFF716FD01282DD101210620FFF765F92D
:1057B0003220FDF78BFD0120052100224FF4967366
:1057C000CDE900210290042201460020FFF700FDF0
:1057D000012809D103204FF47A730122042100909B
:1057E0001046FFF7ADFC1AE003204FF47A73002255
:1057F000042100900120FFF7A3FC0121844880F8D8
:1058000093130CE003204FF47A73002204210090DC
:105810000120FFF795FC01217D4880F893130021BA
:105820000620FFF72AF90521794880F8491330E767
:1058300003204FF47A730122052100901046FFF7F0
:105840007FFC0621724880F8491322E701200521D8
:1058500000224FF49673CDE9002102900722014601
:105860000020FFF7B5FC012824D13220FDF72EFDE2
:10587000032002230A22190200906848FFF7F9F971
:10588000012809D103204FF47A73012206210090E8
:105890001046FFF755FC1AE003204FF47A730022FC
:1058A000062100900120FFF74BFC0121584880F8A9
:1058B00093130CE003204FF47A730022062100902A
:1058C0000120FFF73DFC0121514880F89313072187
:1058D0004F4880F84913DCE60120052100224FF4EF
:1058E0009673CDE900210290082201460020FFF7BF
:1058F0006FFC012824D13220FDF7E8FC03200223AD
:105900000A22D90100904548FFF7B3F9012809D1CF
:1059100003204FF47A730122072100901046FFF70D
:105920000FFC1AE003204FF47A7300220721009045
:105930000120FFF705FC0121354880F893130CE0A6
:1059400003204FF47A730022072100900120FFF713
:10595000F7FB01212E4880F8931308212C4880F88A
:10596000491396E601200521CDE900014FF4967315
:105970000922014602900020FFF72AFC01287ED16F
:10598000234890F8DD1090F8DC0041EA002120481F
:10599000A0F86413B0F8640340F6C411884260DDD7
:1059A00001210846FEF7C1FDC820FDF78FFC01204C
:1059B0000521CDE900014FF49673092201460290BA
:1059C0000020FFF705FC012838D1114890F8DD10C0
:1059D00090F8DC0041EA00210D48A0F86413B0F80B
:1059E0006403B0F5FA7F1BDA03204FF47A730122C7
:1059F000082100901046FFF7A3FB2CE0B0012142E4
:105A00000000214284012342000023428000002044
:105A1000B84100205045002098410020001001406E
:105A200003204FF47A730022082100900120FFF731
:105A300087FB0121FD4880F893130CE003204FF40D
:105A40007A730022082100900120FFF779FB0121E1
:105A5000F64880F8931300210120FEF766FD1BE055
:105A60000DE003204FF47A730022082100900120FA
:105A7000FFF766FB0121ED4880F893130CE003204B
:105A80004FF47A730022082100900120FFF758FBA1
:105A90000121E64880F893130921E44880F849136E
:105AA000F7E501200521CDE900014FF496730A22A4
:105AB000014602900020FFF78BFB01286BD1DB48E9
:105AC00090F8DD1090F8DC0041EA0021D748A0F8FA
:105AD0006413B0F8640340F6C41188424DDD01211F
