:020000040800F2
:1000000018470020B9030008893B00088B3B000813
:100010008F3B0008933B0008973B0008000000005E
:100020000000000000000000000000004501000882
:100030009B3B00080000000089010008D521000852
:10004000D3030008D3030008D3030008D303000838
:10005000D3030008D3030008D3030008D303000828
:10006000D3030008D3030008D3030008D303000818
:10007000D3030008D3030008D3030008D303000808
:10008000D3030008D3030008D3030008D3030008F8
:10009000D3030008D3030008D3030008D3030008E8
:1000A000D3030008D3030008D3030008D3030008D8
:1000B0009D3B0008D3030008D3030008D3030008C6
:1000C000D3030008D3030008D3030008D3030008B8
:1000D000D3030008CD3B0008D3030008D303000876
:1000E000D3030008D3030008D3030008D303000898
:1000F000D3030008D3030008D3030008D303000888
:10010000D3030008D3030008D3030008D303000877
:10011000D3030008D3030008D3030008D303000867
:10012000D3030008D3030008D3030008D303000857
:10013000DFF80CD00AF0EAFF00480047473B000810
:1001400018470020224B19680868B0E8F00F80F3C8
:100150000988BFF36F8F4FF0000080F311884EF0D5
:100160000D0E70470000000006480068006880F32C
:10017000088862B661B6BFF34F8FBFF36F8F00DFA1
:1001800000BF00BF08ED00E0EFF30980BFF36F8F01
:100190000F4B1A6820E9F00F106008B54FF0BF0050
:1001A00080F31188BFF34F8FBFF36F8F02F090FC85
:1001B0004FF0000080F31188BDE808401968086816
:1001C000B0E8F00F80F30988BFF36F8F704700BF6E
:1001D00044000020EFF30580704700000CB50020BC
:1001E000019000906B48006840F4803069490860D5
:1001F00000BF6848006800F4003000900198401C7F
:100200000190009818B90198B0F5A06FF1D161483C
:10021000006810F4003F02D00120009001E00020AF
:1002200000900098012842D15B48006840F010001F
:10023000594908600846006820F003000860084635
:10024000006840F002000860524840685149486028
:100250000846406848600846406840F4806048604E
:100260000846406820F47C1048600846406840F426
:10027000E81048600846006840F08070086000BFE1
:100280004448006810F0007FFAD04248406820F0EF
:100290000300404948600846406840F0020048605A
:1002A00000BF3C48406800F00C000828F9D10CBDA4
:1002B00010B5FFF793FF10BD10B53648006840F049
:1002C0000100344908600846406834490840314913
:1002D000486008460068324908402E4908600846D0
:1002E000006820F4802008600846406820F4FE0082
:1002F00048604FF41F008860FFF7DAFF4FF000609E
:100300002849086010BD10B5002100200022214BB3
:100310005B6803F00C0121B1042906D0082928D11B
:1003200007E0214B214C236027E01F4B1F4C23602B
:1003300023E0184B5B6803F47010164B5B6803F402
:100340008032022303EB904022B9194B4343174CF0
:1003500023600DE00F4B5B6813F4003F04D0144B97
:100360004343124C236003E00F4B43430F4C236085
:1003700003E00D4B0D4C236000BF00BF054B5B68D5
:10038000C3F303130B4CE15C084B1B68CB40074CD9
:10039000236010BD00100240002002400000FFF862
:1003A000FFFFF6FE08ED00E000127A0000000020DA
:1003B00000093D0004000020064880470648004729
:1003C000FEE7FEE7FEE7FEE7FEE7FEE7FEE7FEE705
:1003D000FEE7FEE7B9020008310100083149014398
:1003E000314A1160704770B5002100230F22C47894
:1003F0000CB32D4C246804F4E064C4F5E064210AD5
:10040000C1F10403CA40447804FA03F1847814402B
:1004100021430901254C0678A155047804F01F05F5
:100420000124AC4005786D114FF0E02606EB850500
:10043000C5F8004109E0047804F01F050124AC4030
:100440001B4D0678761145F8264070BD194A0A40C2
:100450000243154B1B1F1A60704739B1124A121D17
:1004600012680243104B1B1D1A6006E00E4A121D53
:10047000126882430C4B1B1D1A607047042808D178
:100480004FF0E021096941F004014FF0E0221161D1
:1004900007E04FF0E021096921F004014FF0E0226C
:1004A000116170470000FA050CED00E000E400E087
:1004B00080E100E080FFFF1F10B50446CA48844277
:1004C00008D10121042000F047FB0021042000F0A6
:1004D00043FB46E0C548844208D10121082000F0D2
:1004E0003BFB0021082000F037FB3AE0C048844283
:1004F00008D10121102000F02FFB0021102000F076
:100500002BFB2EE0BB48844208D10121202000F0C3
:1005100023FB0021202000F01FFB22E0B64884428C
:1005200008D10121402000F017FB0021402000F0FD
:1005300013FB16E0B148844208D10121802000F06D
:100540000BFB0021802000F007FB0AE0AC4884424E
:1005500007D10121801500F0FFFA0021A01500F05D
:10056000FBFA10BD10B50121084600F0F5FA002194
:10057000012000F0F1FA10BD2DE9F04102460025FE
:100580000026002000230024002791F803C00CF06F
:100590000F0591F803C01CF0100F03D091F802C0B2
:1005A0004CEA050591F800C0BCF1000F31D0146889
:1005B00000202BE04FF0010C0CFA00F3B1F800C062
:1005C0000CEA03069E4220D183004FF00F0C0CFA78
:1005D00003F7BC4305FA03FC4CEA040491F803C09A
:1005E000BCF1280F06D14FF0010C0CFA00FCC2F848
:1005F00014C00AE091F803C0BCF1480F05D14FF0D8
:10060000010C0CFA00FCC2F810C0401C0828D1D321
:100610001460B1F800C0BCF1FF0F34DD5468002055
:100620002EE000F1080C4FF0010808FA0CF3B1F8C5
:1006300000C00CEA03069E4221D183004FF00F0C4C
:100640000CFA03F7BC4305FA03FC4CEA040491F8E6
:1006500003C0BCF1280F05D100F1080C08FA0CF812
:10066000C2F8148091F803C0BCF1480F07D100F123
:10067000080C4FF0010808FA0CF8C2F81080401C72
:100680000828CED35460BDE8F0814FF6FF71018099
:10069000022181700421C1707047024600209368D6
:1006A0000B4201D0012000E000207047014688681D
:1006B00080B2704702460020D3680B4201D001206F
:1006C00000E0002070470146C86880B270470161B1
:1006D0007047416170470AB1016100E041617047B4
:1006E000C16070474FF480320A4382618161826148
:1006F00082698269704702460020424B18684FF6B3
:100700008073184040EA021008433E4B186070475F
:100710003D49C8617047F0B50A4600230024002116
:10072000002500F00046B6F1004F02D1354EF169C8
:1007300001E0344E7168C0F3034583B200F4401603
:10074000B6F5401F08D121F070612E4E766826F074
:1007500070662C4F7E6012E000F48016B6F5801FA4
:1007600006D1032606FA05F4A14341F0706106E0C4
:10077000460D360103FA06F6B14341F0706122B12D
:10078000460D360103FA06F6314300F00046B6F195
:10079000004F02D11B4EF16101E01A4E7160F0BDB5
:1007A00030B500228B071C0F0F2303FA04F2154B00
:1007B00008338C1053F824309343124C08348D10B6
:1007C00044F8253023468C1053F824308C07240F2E
:1007D00000FA04F423430B4C08348D1044F8253000
:1007E00030BD0A490860704700080140000C014014
:1007F000001001400014014000180140001C01409D
:10080000002001400000014000002042DC002042A6
:100810000E49086070470D49486070470B49886071
:1008200070474AF6AA200949086070474CF6CC4048
:1008300006490860704701460020044AD2680A420F
:1008400001D0012000E0002070470000003000408F
:10085000DD48006840F00100DB4908600846406858
:10086000DA490840D849486008460068D849084035
:10087000D54908600846006820F4802008600846D2
:10088000406820F4FE0048604FF41F008860704705
:10089000CD49096821F48031CB4A116011460968BD
:1008A00021F480211160B0F5803F03D0B0F5802F96
:1008B0000ED106E0C449096841F48031C24A116092
:1008C00007E0C149096841F4A021BF4A116000E076
:1008D00000BF00BF704710B5014600220023002072
:1008E0004A11012A02D1B84C236806E0022A02D13B
:1008F000B54C236A01E0B44C636A01F01F02012485
:1009000094401C4201D0012000E0002010BD38B509
:10091000002000900024002500BF3120FFF7DBFFFE
:1009200005460098401C00900098B0F5A06F01D0DB
:10093000002DF2D03120FFF7CEFF08B1012400E0F6
:100940000024204638BD014600209F4A106820F050
:10095000F80040EAC100106070479E490860704787
:1009600002460020984B586820F47C1042EA0103AC
:100970001843954B58607047964908667047014682
:100980000020914A506820F00300084350607047EF
:100990008D48406800F00C007047014600208A4AEC
:1009A000506820F0F0000843506070470146002076
:1009B000854A506820F4E060084350607047014663
:1009C0000020814A506820F4605040EAC100506025
:1009D000704729B17C4A527A02437B4B5A7204E039
:1009E000794A527A8243784B5A7270477A49086042
:1009F000704701460020744A506820F44040084384
:100A0000506070470021754A11706F4A82F82010BB
:100A1000012802D0042808D103E001216F4A117097
:100A200004E005216D4A117000E000BF00BF70476F
:100A30006B49086070476449096A0143624A116260
:100A40007047674944390860704730B5002100227B
:100A5000002400235C4D6D6805F00C0121B10429D0
:100A600005D0082923D105E05E4D056022E05D4DEB
:100A700005601FE0544D6D6805F47012524D6D68AD
:100A800005F48034022505EB92421CB9564D5543BE
:100A900005600BE04C4D6D6815F4003F03D0524DDE
:100AA0005543056002E04F4D5543056002E04D4D52
:100AB000056000BF00BF444D6D6805F0F0010909F5
:100AC0004A4D6B5C0568DD4045603F4D6D6805F43F
:100AD000E061090A454D6B5C4568DD4085603A4D33
:100AE0006D6805F46051C90A404D6B5C4568DD4096
:100AF000C560354D6D6805F44041890B3C4D6B5C1C
:100B0000C568B5FBF3F5056130BD29B12E4A5269C0
:100B100002432D4B5A6104E02B4A526982432A4B0F
:100B20005A61704729B1284A92690243264B9A615B
:100B300004E0254A92698243234B9A61704729B1A8
:100B4000214AD2690243204BDA6104E01E4AD2698D
:100B500082431D4BDA61704729B11B4AD2680243B8
:100B6000194BDA6004E0184AD2688243164BDA6007
:100B7000704729B1144A12690243134B1A6104E009
:100B8000114A12698243104B1A6170471449403967
:100B9000086070470F49C86470470B49C8717047B7
:100BA0000948406A40F08070074948627047014632
:100BB0000020054A92680A4201D0012000E000208E
:100BC0007047014988727047001002400000FFF82A
:100BD000FFFFF6FE00004242D800424220100240D1
:100BE0008004424200127A0000093D0014000020F7
:100BF0002400002010B50446BE48844208D10121DB
:100C00008014FFF7A9FF0021A014FFF7A5FF16E04D
:100C1000B948844208D101210014FFF7AAFF00213E
:100C20002014FFF7A6FF0AE0B448844207D101214F
:100C3000C013FFF79EFF0021E013FFF79AFF10BDDE
:100C400010B50022028802F441520B884C882343DD
:100C50008C882343CC8823430C8923434C8923432A
:100C60008C892343CC8923431A430280838B4FF220
:100C7000FF74234083830B8A038210BD2DE9F04F5C
:100C800085B005460C464FF0000902274FF00008DA
:100C90004FF0010B0026B246A88B4FF240010840EE
:100CA000A88302202884B5F81C90A068022801D1EE
:100CB00000BF38E0A08810B94FF0010B01E04FF001
:100CC000020B8D48854200D100E000BF6846FFF767
:100CD000BCFEDDF800A0E088B0F5007F0AD14FEA45
:100CE0001A2000EB80004000A168B0FBF1F0401D2D
:100CF00086B20BE04FEA4B10BAFBF0F000EB80003D
:100D00004000A168B0FBF1F0401D86B20A20B6FB9E
:100D1000F0F606F00108A6EB0800C0F34F074FF607
:100D2000FF7000EA0828022F01DBFF2F02DD0227F7
:100D30004FF00008E08840EA080038432884A08883
:100D4000A1890843618808432188084340F4006072
:100D500040EA0909A5F81C9005B0BDE8F08F002114
:100D6000018041808180C180018141818181C18177
:100D70000721018270470021018041808180C1806C
:100D80000221816000218181704721B1028842F0F7
:100D90004002028004E002884FF6BF731A400280CE
:100DA000704721B1828B42F48062828304E0828B9F
:100DB0004FF6FF331A408283704730B5002400237A
:100DC0000C110125A540ABB21AB185881D43858061
:100DD00002E085889D43858030BD1AB183880B432E
:100DE000838002E083888B438380704781817047D2
:100DF000014688897047A1F57E42FF3A04D00288F7
:100E000042F48072028004E002884FF6FF631A40C9
:100E10000280704721B1828842F00402828004E09F
:100E200082884FF6FB731A408280704702884FF227
:100E3000FF731A40028002880A43028070470188CB
:100E400041F480510180704721B1028842F4005280
:100E5000028004E002884DF6FF731A40028070475A
:100E600002460020012901D0108B00E0908A7047D3
:100E70000146088A7047B1F5804F04D1028842F4D8
:100E80008042028004E002884BF6FF731A40028021
:100E900070470246002013890B4201D0012000E078
:100EA00000207047CA4302817047F0B50246002017
:100EB00000240023002501F00F070126BE40B4B234
:100EC0000B1101269E40B3B2968806EA03051689E7
:100ED000264202D00DB1012000E00020F0BD10B587
:100EE000002201F00F040123A3409AB2D3430381EF
:100EF00010BD00000030014000380040003C0040C0
:100F000010B50446FE48844208D10121C014FFF701
:100F100023FE0021E014FFF71FFEC4E0B4F1804F70
:100F200008D101210846FFF724FE00210120FFF728
:100F300020FEB8E0F348844208D101210220FFF7E7
:100F400018FE00210220FFF714FEACE0EE488442B8
:100F500008D101210420FFF70CFE00210420FFF737
:100F600008FEA0E0E948844208D101210820FFF7EB
:100F700000FE00210820FFF7FCFD94E0E4488442D5
:100F800008D101211020FFF7F4FD00211020FFF708
:100F9000F0FD88E0DF48844208D101212020FFF7DE
:100FA000E8FD00212020FFF7E4FD7CE0DA488442E0
:100FB00008D101214014FFF7CFFD00216014FFF795
:100FC000CBFD70E0D548844209D10121C804FFF768
:100FD000C3FD00214FF40020FFF7BEFD63E0D048C1
:100FE000844209D101210805FFF7B6FD00214FF425
:100FF0008010FFF7B1FD56E0CA48844209D10121B3
:101000004805FFF7A9FD00214FF40010FFF7A4FDEC
:1010100049E0C548844208D101214020FFF7A9FDDD
:1010200000214020FFF7A5FD3DE0C048844208D1E3
:1010300001218020FFF79DFD00218020FFF799FD11
:1010400031E0BB48844208D101218015FFF791FDB2
:101050000021A015FFF78DFD25E0B648844209D197
:1010600001210804FFF778FD00214FF48030FFF7DD
:1010700073FD18E0B048844209D101214804FFF70C
:101080006BFD00214FF40030FFF766FD0BE0AB482D
:10109000844208D101218804FFF75EFD00214FF44E
:1010A0008020FFF759FD10BD00220288944B984222
:1010B0000ED0994B98420BD0B0F1804F08D0914B95
:1010C000984205D0904B984202D0904B984204D160
:1010D0004FF68F731A404B881A438D4B984207D0B6
:1010E0008C4B984204D04FF6FF431A40CB881A43EA
:1010F00002808B8883850B880385814B98420BD0B7
:10110000854B984208D08B4B984205D08A4B984229
:1011100002D08A4B984201D10B7A03860123838245
:10112000704770B5002400220023058C4FF6FE7630
:1011300035400584028C8388048B4FF68F752C40D4
:10114000B51E2C400D882C43751E2A400D892A435C
:101150004D882A436A4DA8420BD06F4DA84208D053
:10116000744DA84205D0744DA84202D0734DA842D8
:1011700013D14FF6F7752A404D892A434FF6FB7578
:101180002A408D882A434FF6FF652B404FF6FF55C6
:101190002B408D892B43CD892B4383800483CD88BD
:1011A0008586028470BD70B5002400220023058C62
:1011B0004FF6EF7635400584028C8388048B48F621
:1011C000FF752C404FF6FF452C400D884FF6FF76FB
:1011D00006EA05252C434FF6DF752A400D8906EAFD
:1011E00005152A434D8806EA05152A43444DA842B1
:1011F00002D0494DA8421DD14FF67F752A404D8936
:101200004FF6FF7606EA05152A434FF6BF752A40CA
:101210008D8806EA05152A434FF6FF352B404FF21D
:10122000FF752B408D8906EA85052B43CD8906EA9B
:1012300085052B4383800483CD880587028470BD98
:1012400070B5002400220023058C4FF6FF66354060
:101250000584028C8388848B4FF68F752C404FF663
:10126000FC752C400D882C434FF6FF552A400D8904
:101270004FF6FF7606EA05252A434D8806EA05253E
:101280002A431F4DA84202D0234DA8421DD14FF240
:10129000FF752A404D894FF6FF7606EA05252A4359
:1012A0004FF6FF352A408D8806EA05252A434EF67B
:1012B000FF752B404DF6FF752B408D8906EA05150D
:1012C0002B43CD8906EA05152B4383808483CD8883
:1012D0008587028470BD70B5002200230024058C30
:1012E0004EF6FF7635400584038C8488828B48F661
:1012F000FF752A404FF6FF452A400D8820E0000088
:10130000002C01400004004000080040000C004098
:10131000001000400014004000340140004C014027
:10132000005001400054014000180040001C0040E3
:1013300000200040004001400044014000480140BE
:101340004FF6FF7606EA05252A434DF6FF752B403A
:101350000D8906EA05352B434D8806EA05352B43F2
:10136000FA4DA84202D0FA4DA84208D14BF6FF75BB
:101370002C408D894FF6FF7606EA85152C43848034
:101380008283CD88A0F84050038470BD828B4FF2D9
:10139000FF331A408283828B4FF6FF7303EA0123E7
:1013A0001A4382837047F0B50C461546002200218F
:1013B0000026078C4EF6FF7C07EA0C070784828B19
:1013C000018C4FF6FF7707EA043640F6FF473A40B4
:1013D0004FF6FF7707EA05273A434FF6FF7707EA0C
:1013E00003373A43D94FB8420ED0D94FB8420BD049
:1013F000B0F1804F08D0D74FB84205D0D64FB84291
:1014000002D0D64FB84206D14DF6FF77394046F4A8
:101410008057394305E047F6FF57394044F4805779
:10142000394382830184F0BD828B4FF6F3731A40F7
:101430008283828B0A4382837047F0B50C4615463F
:10144000002200210026078C4FF6FF6C07EA0C07EC
:101450000784828B018C4FF6FF7707EA04264FF64C
:101460000C773A404FF6FF7707EA03172F433A43CA
:10147000B64FB8420ED0B64FB8420BD0B0F1804F45
:1014800008D0B44FB84205D0B34FB84202D0B34FE2
:10149000B84206D14FF6FF57394046F480773943BA
:1014A00005E04FF2FF57394044F480773943828397
:1014B0000184F0BD028B4FF2FF331A400283028B8E
:1014C0004FF6FF7303EA01231A4302837047F0B516
:1014D0000C461546002200210026078C4FF6EF7CB3
:1014E00007EA0C070784028B018C4FF6FF7707EAA7
:1014F000041640F6FF473A404FF6FF7707EA0337F6
:101500003A434FF6FF7707EA05273A438F4FB84231
:101510000ED08F4FB8420BD0B0F1804F08D08D4F16
:10152000B84205D08C4FB84202D08C4FB84206D199
:101530004FF6DF77394046F01007394305E04FF6A4
:101540005F77394044F01007394302830184F0BDCE
:10155000028B4FF6F3731A400283028B0A43028315
:101560007047F0B50C46154600220021068C4FF658
:10157000FE773E400684028B018C4FF60C7632409B
:101580007E1C06EA03162E433243704EB0420ED044
:101590006F4EB0420BD0B0F1804F08D06D4EB042CC
:1015A00005D06D4EB04202D06C4EB04206D14FF61F
:1015B000FD76314044F00106314305E04FF6F57603
:1015C000314044F00106314302830184F0BD70B51F
:1015D00005460C465D4885420ED05D4885420BD0DD
:1015E000B5F1804F08D05B48854205D05A48854206
:1015F00002D05A48854200D100E000BF208850B98F
:101600002389A28861882846FFF7ABFFE188284636
:10161000FFF79EFF25E0208804280AD12389A288AD
:1016200061882846FFF753FFE1882846FFF742FF0D
:1016300017E0208808280AD12389A28861882846D3
:10164000FFF7FBFEE1882846FFF7EEFE09E023895D
:10165000A28861882846FFF7A6FEE1882846FFF7A2
:1016600095FE70BD2DE9F04105460C460026012788
:10167000608808B9022600E00026A088012801D170
:10168000022700E001272088A0B92389A288618869
:101690002846FFF766FFE1882846FFF759FF2389B0
:1016A0003A4631462846FFF712FFE1882846FFF701
:1016B00001FF13E02389A28861882846FFF707FF0E
:1016C000E1882846FFF7F6FE23893A463146284648
:1016D000FFF747FFE1882846FFF73AFFBDE8F081B2
:1016E0000A884B881A438B881A43CB881A430B8984
:1016F0001A434B891A438B891A43A0F84420704738
:101700004FF6FF71818000210180C180418001720C
:1017100070470021018041808180C1800181418129
:101720008181C18170470021018041800121818038
:101730000021C180018170470021018041808180AA
:10174000C18001814181818170470000002C0140EE
:10175000003401400004004000080040000C00403C
:1017600021B1028842F00102028004E002884FF6B3
:10177000FE731A400280704731B1B0F8442042F441
:101780000042A0F8442005E0B0F84420C2F30E0265
:10179000A0F8442070471AB183890B43838102E08B
:1017A00083898B43838170478182704741EA0203BA
:1017B000A0F8483070471AB183890B43838102E057
:1017C00083898B438381704701894FF6F8721140FA
:1017D000018170470A46002101894FF68F73194035
:1017E00011430181704730B504460D462946204615
:1017F000FFF7F0FF208940F00700208130BD2DE980
:10180000F04104460D4616461F46602D06D13B4664
:10181000012231462046FFF75AFE05E03B460122F1
:1018200031462046FFF79DFE29462046FFF7D2FFAE
:10183000208940F007002081BDE8F08130B50C46DA
:1018400000210189C9B24FF6FF7505EA032515434A
:1018500025432943018130BD2DE9F04105460E465F
:1018600017469846002443463A4631462846FFF735
:10187000E5FF2C894FF6F870044044F007044FF65A
:101880008F70044044F070042C81BDE8F081F0B505
:1018900004460D4616461F463B463246294620461C
:1018A000FFF7CCFF208940F480402081F0BD018506
:1018B000828270470A46002101884FF68F731940D3
:1018C000114301807047F0B50C4615461E460021B5
:1018D000002200230189028B038C4FF6F8773940F0
:1018E00021434FF6FC473A4040F201173A434FF686
:1018F000DD773B404FF6FF7707EA06172F433B4360
:10190000018102830384F0BD0A460021018B4FF65A
:101910008F7319401143018370470A460021018BE0
:1019200048F6FF7319404FF6FF7303EA0223194389
:10193000018370470A460021818B4FF68F7319404F
:101940001143818370470A460021818B48F6FF735B
:1019500019404FF6FF7303EA02231943818370474E
:1019600021B1028842F08002028004E002884FF632
:101970007F731A400280704721B1828842F00402CE
:10198000828004E082884FF6FB731A4082807047A1
:1019900021B1828842F00802828004E082884FF6FA
:1019A000F7731A408280704721B1828842F00102A9
:1019B000828004E082884FF6FE731A40828070476E
:1019C0000A460021018B4FF6F7731940114301833A
:1019D00070470A460021018B4FF2FF7319404FF602
:1019E000FF7303EA02231943018370470A4600216B
:1019F000818B4FF6F77319401143818370470A4674
:101A00000021818B4FF2FF7319404FF6FF7303EAF9
:101A100002231943818370470A460021018B4FF648
:101A2000FB7319401143018370470A460021018B63
:101A30004FF6FF3319404FF6FF7303EA02231943B1
:101A4000018370470A460021818B4FF6FB731940D2
:101A50001143818370470A460021818B4FF6FF3383
:101A600019404FF6FF7303EA02231943818370473D
:101A70000A460021018B4FF67F7319401143018301
:101A800070470A460021018BC1F30E014FF6FF7328
:101A900003EA02231943018370470A460021818B20
:101AA0004FF67F7319401143818370470A46002126
:101AB000818BC1F30E014FF6FF7303EA0223194332
:101AC000818370470A460021018C4FF6FD7319404F
:101AD0001143018470470A460021018C4FF6F773C9
:101AE00019401143018470470A460021018C4FF6CA
:101AF000DF7319404FF6FF7303EA021319430184A1
:101B000070470A460021018C4FF67F7319404FF64B
:101B1000FF7303EA02131943018470470A46002148
:101B2000018C4FF6FF5319404FF6FF7303EA02236F
:101B30001943018470470A460021018C4FF2FF735C
:101B400019404FF6FF7303EA0223194301847047DB
:101B50000A460021018C4DF6FF7319404FF6FF73C2
:101B600003EA023319430184704730B5002301248E
:101B70008C40A3B2048C9C430484048C02FA01F5CB
:101B8000ADB22C43048430BD30B5002304248C4016
:101B9000A3B2048C9C430484048C02FA01F5ADB218
:101BA0002C43048430BD70B5034600200024184641
:101BB000183001258D40ACB21D8CA5431D8409B1A0
:101BC000082909D100EB6100056825F07005056062
:101BD0000568154305600EE00D1FC5F34E0528444A
:101BE000056825F4E045056005684FF6FF7606EACE
:101BF00002263543056070BD21B1028842F0020221
:101C0000028004E002884FF6FD731A40028070479C
:101C100021B1028842F00402028004E002884FF6FB
:101C2000FB731A400280704721B1828842F0800223
:101C3000828004E082884FF67F731A40828070476A
:101C400002884FF6F7731A40028002880A43028026
:101C5000704782884FF68F731A40828082880A43C9
:101C60008280704702894FF6F8731A400281028918
:101C70000A430281704702894FF67F731A4002813E
:101C800002890A43028170478184704781857047C9
:101C9000818670470187704781877047A0F84010A0
:101CA000704702884FF6FF431A40028002880A43B9
:101CB000028070470146888E70470146088F704742
:101CC0000146888F70470146B1F8400070470146D1
:101CD000888C70470146088D704702460020138AA1
:101CE0000B4201D0012000E000207047CA4302826D
:101CF000704730B50246002000230024158A05EA0B
:101D00000103958905EA010413B10CB1012000E03B
:101D1000002030BDCA4302827047000010B504465F
:101D2000FB48844209D101218803FEF715FF0021F9
:101D30004FF48040FEF710FF32E0F648844209D1AC
:101D400001214804FEF715FF00214FF40030FEF793
:101D500010FF25E0F048844209D101218804FEF7F4
:101D600008FF00214FF48020FEF703FF18E0EB4846
:101D7000844209D10121C804FEF7FBFE00214FF483
:101D80000020FEF7F6FE0BE0E548844208D1012171
:101D90000805FEF7EEFE00214FF48010FEF7E9FE85
:101DA00010BD2DE9F04786B005460E460024A24638
:101DB00000BFA1460027B08900B100BF2F462C8A82
:101DC0004CF6FF700440F08804432C82AC894EF638
:101DD000F3100440B08831890843718908430443F3
:101DE000AC81AC8A4FF6FF400440B0890443AC821A
:101DF00001A8FEF72AFEC648874202D1DDF810A0EE
:101E000001E0DDF80CA0A88910F4004F08D00AEB1F
:101E1000CA0000EB0A1031684900B0FBF1F807E096
:101E20000AEBCA0000EB0A1031688900B0FBF1F838
:101E30006420B8FBF0F004012009642101FB108943
:101E4000A88910F4004F08D0322000EBC900B0FB85
:101E5000F1F000F00700044308E0322000EB091025
:101E60006421B0FBF1F000F00F0004432C8106B0B8
:101E7000BDE8F0874FF41651016000218180C180D8
:101E800001810C21418100218181704710B50246FA
:101E90000020108A4FF2FF0318400B884C88234320
:101EA0008C882343CC8823431843108210BD002123
:101EB000018041808180C180704721B1828942F4D4
:101EC0000052828104E082894DF6FF731A408281BC
:101ED0007047F0B503460024002600250020A1F538
:101EE00010676A3F00D100BF1846C1F3421401F0E9
:101EF0001F06012707FA06F5012C01D10C3004E07A
:101F0000022C01D1103000E014301AB107682F43C1
:101F1000076002E00768AF430760F0BD1AB1838A2B
:101F20000B43838202E0838A8B4383827047028A59
:101F30004FF6F0731A400282028A0A430282704707
:101F400082894FF2FF731A40828182890A4382811B
:101F5000704721B1828942F00202828104E08289C5
:101F60004FF6FD731A4082817047028A4FF6DF7385
:101F70001A400282028A0A430282704721B1028A11
:101F800042F48042028204E0028A4BF6FF731A4058
:101F900002827047C1F30802828070470146888838
:101FA000C0F308007047818941F0010181817047C9
:101FB000028BD2B20283028B42EA01220283704773
:101FC000028B02F47F420283028B0A430283704732
:101FD00021B1828A42F02002828204E0828A4FF696
:101FE000DF731A408282704721B1828A42F0100268
:101FF000828204E0828A4FF6EF731A408282704731
:1020000021B1828A42F00802828204E0828A4FF67D
:10201000F7731A408282704721B1828942F40042EC
:10202000828103E08289C2F30E028281704721B16E
:10203000828A42F40062828204E0828A4FF2FF7355
:102040001A4082827047828A4FF6FB731A4082825E
:10205000828A0A438282704721B1828A42F0020258
:10206000828204E0828A4FF6FD731A4082827047B2
:1020700002460020B1F5007F00D100BF13880B425B
:1020800001D0012000E00020704701F40072B2F599
:10209000007F00D100BFCA430280704770B502467E
:1020A0000024002300250020A1F510666A3E00D11F
:1020B00000BFC1F3421501F01F03012606FA03F326
:1020C000012D02D19689334006E0022D02D1168AF5
:1020D000334001E0968A33400C12012606FA04F4DC
:1020E0001688344013B10CB1012000E0002070BD0F
:1020F00010B500220023A1F510646A3C00D100BF96
:102100000A1201249440A3B2DC43048010BD0000F5
:10211000003801400044004000480040004C0040AE
:102120000050004000BFBF2080F31188BFF34F8FE5
:10213000BFF36F8F00BF00BFFEE7001F4FF080733B
:102140000360001F21F001030360001F2D4B03609B
:10215000143802602038704700204FF0E0210861F9
:1021600088614AF6DF30486107200861704710B582
:102170002548006840F47F0023490860084600684D
:1021800040F07F400860FFF7E7FF00201F4908602C
:10219000FDF7EAFF002010BD704700BFBF2080F3AD
:1021A0001188BFF34F8FBFF36F8F00BF17480068D0
:1021B000401C16490860704714480068401E1349C7
:1021C00008600846006820B9002080F3118800BF2D
:1021D00000BF704710B500BFBF2080F31188BFF368
:1021E0004F8FBFF36F8F00BF00F042FA20B14FF066
:1021F000805005491C39086000BF002080F3118819
:1022000000BF10BD2521000820ED00E028000020BF
:10221000434A22F00700434A10600022414B5A60B3
:1022200043F6F872404B5A6000221A60014643F6AA
:10223000F8724A601A460A6070472DE9F041044678
:102240004FF0000800F05DFB3848006820B9FFF748
:10225000DFFF01203549086044B1083414F0070F4E
:1022600004D004F00700C0F108000444002C32D070
:1022700043F6F87084422ED22A4F3846056801E0B2
:102280002F462D686868A04202D228680028F7D13E
:10229000254885421FD0386800F108082868386052
:1022A0006868001B102810D92E196868001B706020
:1022B0006C6071681B4800E00068026852688A42DE
:1022C000FAD302683260066000BF1949686809687D
:1022D000081A1749086000F049FA4046BDE8F08145
:1022E00070B506463546B6B1083D2C4600F009FBF0
:1022F00061680C4800E00068026852688A42FAD3BC
:102300000268226004600A49606809680844084954
:10231000086000F02BFA70BD0548006870477047F0
:10232000E0000020340000203C00002030000020AD
:102330002C00002000F1080141604FF0FF31816066
:1023400000F10801C16001610021016070470021B6
:102350000161704742684A6093688B609368596076
:102360009160086103685B1C0360704710B502460A
:102370000B685C1C01D1106907E002F1080000E065
:102380004068446824689C42FAD944684C604C68B0
:10239000A160886041600A611468641C146010BD0B
:1023A00001460A69D1E901309860D1E9010358601A
:1023B0005068884201D18868506000200861106828
:1023C000401E10601068704710B5002407E004EB51
:1023D0008401FE4A02EB8100FFF7ACFF641C082C6D
:1023E000F5D3FB48FFF7A6FFFA48FFF7A3FFFA482B
:1023F000FFF7A0FFF948FFF79DFFF948FFF79AFFA5
:10240000F348F8490860F348F749086010BD10B573
:102410000446FFF7C2FEF5480068401CF349086017
:10242000F348006840B9F248046008460068012893
:102430000DD1FFF7C9FF0AE0EE48006838B9EC4853
:102440000068C06AE16A884201D8E9480460EA4845
:102450000068401CE849086094F82C10012088406E
:10246000E64909680843E5490860E16A01EB810132
:10247000D64A02EB8100211DFFF76CFFFFF79CFE9F
:10248000DC48006868B1DA480068C06AE16A8842DE
:1024900007D24FF08050DA490860BFF34F8FBFF387
:1024A0006F8F10BD2DE9FF5F80460E469146DDE936
:1024B0000E7A109CA9F10100216B01EB800B2BF02F
:1024C000070B86B1002507E0715D04F1340041552A
:1024D000705D00B902E06D1C102DF5D300BF002126
:1024E0004320015502E0002084F83400082F00D377
:1024F0000727E762201DFFF72AFF04F11800FFF706
:1025000026FF2461C7F10800A061646200206064B6
:1025100084F8480041465846039AFFF70EFE2060B3
:10252000BAF1000F01D0CAF80040BDE8FF9F2DE9C5
:10253000FF4F85B0804689461746DDE912ABB800EB
:10254000FFF77BFE064656B14C20FFF776FE0446A9
:102550000CB1266304E03046FFF7C2FE00E0002421
:102560007CB10020CDE900ABCDE902403A464946B6
:102570004046089BFFF796FF2046FFF748FF0125DE
:1025800001E04FF0FF35284609B0BDE8F08F9549CE
:102590000968096809B9012100E0002121B14FF063
:1025A000FF31984A116006E08E490968C968C86819
:1025B000944A41681160704710B50446206BFFF7DC
:1025C0008FFE2046FFF78CFE10BD70B50546FFF765
:1025D000E4FD15B98648006800E028460446201D41
:1025E000FFF7DEFE78B9E06A00EB8000774951F82A
:1025F000200040B994F82C10012088407F490968D8
:1026000081437E480160A06A18B104F11800FFF709
:10261000C7FE79480068401C774908607448006824
:10262000844209D1211D6D48FFF794FE7648006869
:10263000401C7549086009E06C480068401E6B4901
:1026400008602046FFF7B8FFFFF7A1FFFFF7B4FDD2
:102650006848006858B166480068844207D14FF066
:10266000805067490860BFF34F8FBFF36F8F70BD15
:102670002DE9F041002765480068002868D16448CA
:102680000068451C624805608DB95648D0F8008046
:1026900055480068534908605348C0F800805D48B9
:1026A0000068401C5B490860FFF771FF00BF554898
:1026B000006885423BD300BF4A480068006808B9FB
:1026C000012000E0002020B14FF0FF304D490860AC
:1026D0002CE044480068C068C4686668B54202D20D
:1026E0004848066022E0201DFFF75AFEA06A18B194
:1026F00004F11800FFF754FE94F82C1001208840D4
:102700003E49096808433D490860E16A01EB8101DF
:102710002E4A02EB8100211DFFF71CFE3449E06ABE
:102720000968C96A8842C7D30127C5E700BF304896
:102730000068C06A00EB8000244951F8200001289D
:1027400000D901273448006808B901F007FA06E00B
:1027500031480068401C3049086001F0FFF92F48FB
:10276000006800B101273846BDE8F08170B500244B
:102770000026FFF712FD25480068401E2349086027
:102780000846006800287AD118480068002876D0EA
:102790004FE01148C068C46804F11800FFF700FE5C
:1027A000201DFFF7FDFD94F82C10012088401349EF
:1027B0000968084311490860E16A01EB8101034A95
:1027C00002EB8100211DFFF7C5FD29E0D840002064
:1027D000784100208C410020A0410020B44100201D
:1027E000C8410020780000207C0000204C00002020
:1027F0004400002058000020680000205400002001
:1028000004ED00E06C00002048000020740000206F
:1028100050000020640000205C00002060000020C8
:10282000F849E06A0968C96A884202D30120F6497A
:102830000860F648006808B9012000E00020002880
:10284000A7D00CB1FFF7A3FEF148056865B100BF42
:10285000FFF70EFF10B10120EB4908606D1E002D3F
:10286000F6D10020EA490860E748006838B101263F
:102870003007E8490860BFF34F8FBFF36F8FFFF752
:102880009BFC304670BD2DE9F04105460E46E248FE
:102890000768DC480068001DFFF782FD50B9D94881
:1028A000006890F82C1001208840DC4909688143B9
:1028B000DA480160681C07D136B1D2480168091DA9
:1028C000D748FFF747FD1AE07C19CE4800684460FE
:1028D000BC4207D2CB480168091DD2480068FFF707
:1028E00045FD0CE0C7480168091DCF480068FFF7A7
:1028F0003DFDCE480068844201D2CC480460BDE86A
:10290000F081CB480068401CC949086070472DE938
:10291000F047044688464FF00009FFF7F2FFBE4833
:102920000668206800EB08052068B04207D92068D7
:10293000A8420BD9B54209D94FF0010906E0206839
:10294000A84201D8B54201D94FF001092560B9F17B
:10295000000F03D0A81B0021FFF795FFFFF706FF2C
:1029600007463FB94FF08050AA490860BFF34F8F28
:10297000BFF36F8FBDE8F08770B50446002544B102
:10298000FFF7BFFF00212046FFF77DFFFFF7EEFEB8
:1029900005463DB94FF080509E490860BFF34F8F08
:1029A000BFF36F8F70BD70B50446FFF7F6FB14B927
:1029B0009448006800E020460646F56AFFF7FCFBF5
:1029C000284670BD70B5024600BFBF25EFF31184E5
:1029D00085F31188BFF34F8FBFF36F8F00BF214680
:1029E00012B9884C246800E014462346D86A00BF18
:1029F00081F3118800BF70BD2DE9F04780460D4678
:102A00004FF00009082D00D30725FFF7C6FBB8F1EA
:102A1000000F02D17B48006800E040460446E66AA9
:102A2000AE4251D0B5420BD97648006884420DD0F1
:102A300074480068C06AA84208D84FF0010905E050
:102A400070480068844201D14FF00109E76AE562ED
:102A5000A06910F0004F02D1C5F10800A06107EB9A
:102A60008701744A02EB81016069884201D101202B
:102A700000E00020E0B1201DFFF792FC30B90120FA
:102A8000B8406649096881436448016094F82C1095
:102A90000120884061490968084360490860E16A8B
:102AA00001EB8101634A02EB8100211DFFF752FC1B
:102AB000B9F1000F07D04FF0805056490860BFF3BE
:102AC0004F8FBFF36F8F00BFFFF776FBBDE8F08736
:102AD0005748006818B101204B4908601DE00020EC
:102AE000494908604D480068B0FA80F0C0F11F0104
:102AF00001EB81024F4B03EB820042685268426057
:102B000000F108024368934202D142685268426071
:102B10004268D2683B4B1A6000BF704770B50546EB
:102B2000FFF73BFB15B93748006800E0284604462C
:102B3000201DFFF735FC78B9E06A00EB80003D49C5
:102B400051F8200040B994F82C10012088403349F6
:102B50000968814331480160A06A18B104F1180086
:102B6000FFF71EFC211D2E48FFF7F4FB94F84800E8
:102B7000012802D1002084F84800FFF71DFB2E48F1
:102B8000006828B1FFF709FBFFF701FDFFF714FB11
:102B90001C480068844217D12748006840B14FF0B4
:102BA00080501C490860BFF34F8FBFF36F8F0BE05D
:102BB0001B48006821490968884203D10020114957
:102BC000086001E0FFF784FF70BD10B501460020EA
:102BD0000A46134C5369A34201D1012300E00023AC
:102BE00073B10A4C936AA34201D1012300E0002390
:102BF00033B9936A0BB9012300E0002303B101202C
:102C000010BD00004400002060000020A041002012
:102C10005C00002004ED00E0500000205400002083
:102C2000C84100207C000020780000206C000020BB
:102C300074000020D8400020580000204C000020E4
:102C400070B505462C46FE48006884422BD054B32C
:102C5000FFF7A3FA2046FFF7B8FF10B3201DFFF7D8
:102C60009FFB94F82C1001208840F649096808431E
:102C7000F4490860E16A01EB8101F34A02EB81004B
:102C8000211DFFF767FBEE49E06A0968C96A8842BF
:102C900007D34FF08050ED490860BFF34F8FBFF36B
:102CA0006F8FFFF789FA70BD2DE9F04106460027C6
:102CB000344600BFBF21EFF3118081F31188BFF3C9
:102CC0004F8FBFF36F8F00BF05462046FFF77DFF94
:102CD00020B3DF480068E0B9D949E06A0968C96AE9
:102CE000884200D30127201DFFF75AFB94F82C10CF
:102CF00001208840D34909680843D2490860E16A45
:102D000001EB8101D04A02EB8100211DFFF722FB7C
:102D100004E004F11801CF48FFF71CFB00BF85F366
:102D2000118800BF3846BDE8F08110B516E0FFF706
:102D300034FAC948C068C468201DFFF731FBC74892
:102D40000068401EC5490860C5480068401EC44967
:102D50000860FFF731FA2046FFF72EFCC0480068F4
:102D60000028E4D110BD00BFFFF7DFFFB6480068C0
:102D70000128F9D94FF08050B4490860BFF34F8F54
:102D8000BFF36F8FF0E71CB5B64800210B468022D9
:102D9000CDE90010B4A1B648FFF7C9FB0446012CE9
:102DA00014D100BFBF2080F31188BFF34F8FBFF352
:102DB0006F8F00BF4FF0FF30AE4908600120AE4971
:102DC00008600020AD490860FFF7D1F91CBD10B5BF
:102DD00000BFBF2080F31188BFF34F8FBFF36F8F09
:102DE00000BF0020A4490860FFF7D6F910BDA34931
:102DF000086870470021A14A10687047974800682A
:102E00007047014611B98E48006800E00846024646
:102E100002F13400704770B505460C4688480168D9
:102E200018312846FFF7A2FA01212046FFF72BFDB3
:102E300070BD70B506460C46154644F0004080490A
:102E4000096888617E48016818313046FFF782FAC8
:102E500001212846FFF717FD70BD70B50646F068E2
:102E6000C46804F11800FFF79BFA79480068A8B914
:102E7000201DFFF795FA94F82C1001208840714925
:102E8000096808436F490860E16A01EB81016E4AF5
:102E900002EB8100211DFFF75DFA04E004F1180147
:102EA0006C48FFF757FA6649E06A0968C96A8842C0
:102EB00004D9012501207249086000E00025284658
:102EC00070BD70B505460E4646F000402860EC68BF
:102ED0002846FFF765FA201DFFF762FA94F82C10D8
:102EE0000120884057490968084356490860E16A4B
:102EF00001EB8101544A02EB8100211DFFF72AFA00
:102F00004F49E06A0968C96A884202D901205C49D0
:102F1000086070BD10B50446FFF73FF959480068D6
:102F20002060564800686060FFF746F910BD5549BB
:102F300009680160514909684160704770B50646EB
:102F40000C46FFF72AF94D4802687068131A20688A
:102F5000401C01D1002517E04A49306809688842C1
:102F600004D07068904201D801250DE02068984295
:102F700007D92068C01A20603046FFF7D8FF002527
:102F800002E0002020600125FFF716F9284670BDF9
:102F900001203B4908607047294909688869284928
:102FA0000968C96AC1F10801254A12689161704730
:102FB00070B506460D46FFF7F0F821480068406CF2
:102FC00088B901201E49096881F848005DB10121D6
:102FD0002846FFF758FC4FF080501C490860BFF3AB
:102FE0004F8FBFF36F8FFFF7E7F8FFF7D6F814485E
:102FF0000068446C4CB126B100201149096848644E
:1030000003E0601E0E490968486400200C49096805
:1030100081F84800FFF7D0F8204670BD2DE9F04157
:103020000746884614461D46FFF7B7F8044800686F
:1030300090F8480002283ED00149096824E00000C9
:103040004400002054000020D840002004ED00E09F
:1030500074000020A0410020B44100204C0000205A
:10306000480000207000002049444C45000000004A
:10307000672D00086C000020580000205000002040
:10308000600000206400002001F14400496CB94355
:1030900001600120B249096881F848005DB1012151
:1030A0002846FFF7F0FB4FF08050AE490860BFF3B1
:1030B0004F8FBFF36F8FFFF77FF8FFF76EF81CB1EC
:1030C000A7480068406C2060A548006890F8480058
:1030D000022801D0002608E0A149096801F1440056
:1030E000496C21EA08010160012600209C49096819
:1030F00081F84800FFF760F83046BDE8F0812DE91F
:10310000F04781460D4616461F464FF0010A4C46D1
:10311000FFF743F80FB1606C386094F848800220E4
:1031200084F84800052E17D2DFE806F01503070BD8
:103130000D00606C284360640FE0606C401C6064AC
:103140000BE0656409E0B8F1020F01D0656401E0AD
:103150004FF0000A01E000E000BF00BFB8F1010F2E
:1031600022D1201DFFF71CF994F82C100120884073
:103170007D49096808437C490860E16A01EB8101E7
:103180007A4A02EB8100211DFFF7E4F87449E06AF6
:103190000968C96A884207D94FF0805071490860B0
:1031A000BFF34F8FBFF36F8FFFF706F85046BDE8B0
:1031B000F0872DE9F84F83460D4616461F46DDF889
:1031C00028A0012000905C4600BFBF21EFF31180D2
:1031D00081F31188BFF34F8FBFF36F8F00BF81461C
:1031E0000FB1606C386094F84880022084F8480081
:1031F000052E17D2DFE806F01503070B0D00606CF3
:10320000284360640FE0606C401C60640BE0656400
:1032100009E0B8F1020F01D0656401E000200090E0
:1032200001E000E000BF00BFB8F1010F2CD1504811
:103230000068A8B9201DFFF7B3F894F82C100120FE
:10324000884049490968084347490860E16A01EB39
:103250008101464A02EB8100211DFFF77BF804E063
:1032600004F118014348FFF775F83D49E06A096821
:10327000C96A884208D9BAF1000F02D00120CAF801
:10328000000001203C49086000BF89F3118800BF9D
:103290000098BDE8F88F2DE9F04105460E462C4612
:1032A00000BFBF21EFF3118081F31188BFF34F8F6F
:1032B000BFF36F8F00BF074694F84880022084F860
:1032C0004800606C401C6064B8F1010F29D12848A7
:1032D0000068A8B9201DFFF763F894F82C100120AE
:1032E00088402149096808431F490860E16A01EBE9
:1032F00081011E4A02EB8100211DFFF72BF804E03B
:1033000004F118011B48FFF725F81549E06A096820
:10331000C96A884205D90EB10120306001201649E2
:10332000086000BF87F3118800BFBDE8F08170B569
:10333000054615B90A48006800E028460646FEF72B
:103340002CFF96F84800022804D1002086F8480097
:10335000012400E00024FEF72FFF204670BD00008E
:103360004400002004ED00E054000020D84000207C
:1033700074000020A0410020600000200146C34AE4
:1033800012688A4203D3C14A1268501A04E0C04A44
:10339000521ABE4B1B68D0187047BC480068704773
:1033A00070B505460E46B948A0F81051002405E056
:1033B000315DB64810300155601C84B2AC42F7DB79
:1033C000012240F22661B348FEF783FD70BD70B55F
:1033D00004460D4616465521AC4880F89010AA21A7
:1033E00080F8911080F8924080F8935080F89460B3
:1033F00090F8921090F893004840A44991F89410E6
:103400004140A24880F8951000F190010620FFF796
:10341000C7FF70BD01219D4880F81411002180F87C
:103420001511A0F81611704700B502469748B0F87C
:103430001A0108B9FFF7EEFF944890F8140100F064
:103440000700072871D2DFE800F09F0413223C56E2
:103450007100552A07D102218C4880F814110A21E5
:10346000A0F81A1103E000218848A0F81A118CE096
:10347000AA2A07D10321854880F814110A21A0F84F
:103480001A1103E000218148A0F81A117DE00421FF
:103490007E4880F814110A21A0F81A11B0F816110C
:1034A000B0F81601401C83B27848A0F816315030AD
:1034B0004254503890F815015040744981F8150174
:1034C00063E00521714880F814110A21A0F81A114F
:1034D000B0F81611B0F81601401C83B26B48A0F882
:1034E000163150304254503890F815015040674919
:1034F00081F8150149E00621644880F814110A2179
:10350000A0F81A11B0F81611B0F81601401C83B2D9
:103510005E48A0F8163150304254503890F81501EA
:1035200050405A4981F815012FE02DE0574890F896
:103530001501904223D100215448A0F8181111E040
:103540005248B0F818115030415C5038B0F818317A
:10355000D030C154D038B0F81801401C81B24B486B
:10356000A0F818114948B0F818010328E8DB012138
:10357000464880F81C110021A0F81A1103E0002130
:103580004248A0F81A1100E000BF00BF00BD08B516
:1035900041A000F0D7FB4EF67D7000904148408876
:1035A000143883B23F4802882821002004F01EFD11
:1035B0003DA04EF67D731F22822100908C2005F0E5
:1035C000E3FCFFF7EAFE31494860FFF7E6FE2F49CA
:1035D0008860002201211046FFF7F9FE53E02B49D5
:1035E0008868FFF7CBFEB0F5FA7F08D900220121E9
:1035F0001046FFF7ECFEFFF7D0FE24498860234811
:1036000090F81C0110F0010F23D000211F4880F812
:103610001C1190F8D000E0B91C4890F8D1000128A6
:1036200017D11A4890F8D200012812D124A04EF6E2
:103630007D731F22822100908C2005F0A5FC134889
:1036400090F8230120F00100401C104981F823016B
:103650001AE00E494868FFF791FE41F2883188422E
:1036600011D91DA04EF67D731F22822100908C205F
:1036700005F08AFC054890F8230120F00101034879
:1036800080F8231100E0AAE700BF08BDDC4100205C
:10369000005C2605003801404939D6F7B0E5B9A4E9
:1036A000D7B0000004430020B3F5CABCBBAF2E2E38
:1036B0002E2020202020202020202020202000003C
:1036C000B3F5CABCBBAF4F4B2020202020202020C8
:1036D0002020202020200000CFD4CABEC6F7B9CABF
:1036E000D5CF2020202020202020202020200000B6
:1036F000704700BFFFF751FE0546FDF792F8FFF750
:10370000F7FF2846FFF73AFE322806D22846FFF791
:1037100035FEC0F13200C4B200E000242046FFF7BD
:103720002BF9E7E7FFF733FF00BFFDF77AF804F066
:10373000A7FAFAE710B54FF44070FCF74FFE10BD42
:1037400010B50120FDF709F92120FDF7C4F8044662
:103750000CB9002010BD4FF4E0110020FDF700F976
:103760000120FDF709F900BF3920FDF7B4F8002862
:10377000FAD03920FDF7AFF804460220FDF7FFF834
:103780000020FDF70AF90020FDF710F90020FDF7F1
:1037900016F90120DEE710B5FDF75AF84FF4803036
:1037A000FDF776F8FDF7B3F8CD49087008460078C4
:1037B000D8B94FF4E0114FF48030FDF7D1F8012073
:1037C000FDF7DAF800BF3920FDF785F80028FAD0B8
:1037D0000220FDF7D4F80020FDF7DFF84FF48060F9
:1037E000FDF7E4F80020FDF7EAF810BD08B5012167
:1037F0000846FDF78AF90121BA48FDF7A0F9012131
:1038000045F67D00FDF78EF90121B748FCF783FFEF
:103810004FF6FF70ADF8000010208DF80300032074
:103820008DF802006946B148FCF7A6FE6946B0482B
:10383000FCF7A2FE6946AF48FCF79EFE6946AE481B
:10384000FCF79AFE0120ADF8000010208DF803006F
:1038500003208DF802006946A448FCF78DFE012084
:10386000A64908604FF40060ADF800004FF0480032
:103870008DF803004FF003008DF8020069469E4862
:10388000FCF77AFE08BD10B545F25550FCF7C0FFB5
:103890000620FCF7C0FF40F6FF70FCF7BFFFFCF707
:1038A000C5FF10BD30B5964800684FF47A72B0FB82
:1038B000F2F1B1F1807F01D301201BE021F07F40C4
:1038C000401E4FF0E022506150170F22002806DA08
:1038D00013018C4C00F00F052D1F635502E01301FE
:1038E000894C235400BF00204FF0E0229061072054
:1038F0001061002008B100BFFEE730BD1FB5632096
:10390000ADF8080040F2CF20ADF804000020ADF87B
:103910000A00ADF8060001A94FF08040FDF7C4FB96
:103920001C208DF8000002208DF8010000208DF889
:10393000020001208DF803006846FCF754FD0122C7
:1039400011469007FDF727FF01218807FDF708FFC3
:103950001FBD1FB50920ADF8080041F61F40ADF8A6
:1039600004000020ADF80A00ADF8060001A9674880
:10397000FDF79AFB1D208DF8000003208DF8010053
:1039800000208DF8020001208DF803006846FCF746
:103990002AFD012211465D48FDF7FDFE01215B482D
:1039A000FDF7DEFE1FBD704700B587B04FF4007015
:1039B000ADF8180003208DF81A0018208DF81B00B0
:1039C00006A94A48FCF7D8FD4FF48060ADF818000E
:1039D00004208DF81B0006A94448FCF7CDFD4FF4E8
:1039E000E13002900020ADF80C00ADF80E00ADF80B
:1039F0001000ADF814000C20ADF8120002A94448E4
:103A0000FEF7CFF925208DF8040001208DF8050080
:103A100000208DF8060001208DF8070001A8FCF7B2
:103A2000E2FC012240F225513948FEF752FA012109
:103A30003748FEF742FA07B000BD10B5FFF77AFE2F
:103A4000FFF7D4FEFFF71FFFFFF7ADFFFFF756FFAD
:103A5000FFF7AAFF482000F01FF910BD00202D49F4
:103A6000086048608860C860084690F81E0120F031
:103A7000010081F81E01084690F81E0120F00200A6
:103A800081F81E010021234880F81F1100202149E0
:103A900081F8200100211F4880F8211180F82211AF
:103AA00090F8230120F001011A4880F8231190F8C2
:103AB000230120F00201174880F82311002180F82B
:103AC000241180F8251180F82611704710B5FFF7F2
:103AD000B4FF05F0CDFE06F089FFFFF7BFFF10BD74
:103AE0008000002017081E0000023000000801407E
:103AF000000C0140001001400014014080012142EF
:103B00000000002018ED00E000E400E000040040A8
:103B100000380140DC4100201CB51148032100237E
:103B2000C022CDE900100FA11148FEF700FD114899
:103B300001210023C022CDE900100FA11148FEF79A
:103B4000F6FC1CBD704710B5FFF7C0FFFFF7FAFF8A
:103B5000FFF7E2FFFFF717F9002010BD70470000E4
:103B60008800002054696D65725461736B00000019
:103B7000F33600088C000020446973706C6179543E
:103B800061736B0025370008704700BFFEE700BF78
:103B9000FEE700BFFEE700BFFEE7704710B501215A
:103BA0008807FEF7A6F860B138480068401C37491E
:103BB0000860084600683649884202D3002033492D
:103BC000086001218807FEF7A5F810BD10B540F286
:103BD00025513048FEF762FA58B12E48FEF7DEF95B
:103BE000C4B22046FFF720FC40F225512948FEF7D9
:103BF0007FFA40F226612748FEF750FA002844D0A9
:103C00002248B0F81001002828DD2048B0F8122121
:103C1000B0F81201401C83B21C48A0F812311030D9
:103C2000815C1C48FEF7B6F91848B0F81211B0F8DC
:103C30001001814224D100211448A0F81011A0F8ED
:103C40001211002240F226611248FEF742F90122C9
:103C500040F225510F48FEF73CF911E000210B48D6
:103C6000A0F81011A0F81211002240F226610948B4
:103C7000FEF72FF9012240F225510648FEF729F9F7
:103C800040F226610348FEF733FA10BDDC41002004
:103C9000005C2605003801404FF0E021096921F061
:103CA00004014FF0E0221161C21700EB5272D210F2
:103CB000224B1A701946097801EB4102C2EBC1117F
:103CC0004FF6FF7202EAC1011D4A1180704701469A
:103CD0001B4A12884A434FF0E0235A6100229A613E
:103CE00001221A6100BF4FF0E022106910F0010FAD
:103CF00002D010F4803FF6D000224FF0E0231A618A
:103D00009A61704701460D4A12784A434FF0E0230A
:103D10005A6100229A6101221A6100BF4FF0E0222D
:103D2000106910F0010F02D010F4803FF6D000228D
:103D30004FF0E0231A619A61704700009000002064
:103D4000920000203EB504464EF67D7005F0E7FC7B
:103D50001F200090FC48028814230021084604F02C
:103D600045F91F200090F84843880288408814389D
:103D700081B2002004F03AF94FF6FF70F349088051
:103D8000012010211F234FF6FF72CDE90041029060
:103D90000221002004F0CFFE01201021ECA2CDE989
:103DA00000210290E8484088123881B21F234FF664
:103DB000FF72002004F0BFFE3EBDF8B506460D467A
:103DC0000A2D6FDA1BD2DFE805F00507090B0D0F8E
:103DD00011131517322413E04A2411E062240FE076
:103DE0007A240DE092240BE0AA2409E0C22407E023
:103DF000DA2405E0F22403E04FF4857400E000BF0C
:103E000000BF412E70D2DFE806F06F212C37424E02
:103E10005964707B86919CA7B2BDF9F7F6F5F4F36F
:103E2000F2F1F0EFEEEDECEBEAE9E8E7E6E5E4E3EA
:103E3000E2E1E0DFDEDDDCDBDAD9D8D7D6D5D4D3DA
:103E4000D2D1D0CFCECDCCCBCAC9C800C4A04EF6FB
:103E50007D734FF4784221460090F22005F094F8EB
:103E60009FE3C2A04EF67D734FF478422146009046
:103E7000F22005F089F894E3BEA04EF67D734FF46E
:103E8000784221460090F22005F07EF889E3BBA03D
:103E90004EF67D734FF4784221460090F22005F0F3
:103EA00073F87EE37EE3B7A04EF67D734FF478425D
:103EB00021460090F22005F067F872E3B3A04EF6B9
:103EC0007D734FF4784221460090F22005F05CF8B3
:103ED00067E3B1A04EF67D734FF47842214600901F
:103EE000F22005F051F85CE35AE3AEA04EF67D7384
:103EF0004FF4784221460090F22005F045F850E357
:103F0000ABA04EF67D734FF4784221460090F2202C
:103F100005F03AF845E3A9A04EF67D734FF47842D8
:103F200021460090F22005F02FF83AE3A6A04EF6C5
:103F30007D734FF4784221460090F22005F024F87A
:103F40002FE3A4A04EF67D734FF4784221460090F3
:103F5000F22005F019F824E3A1A04EF67D734FF48A
:103F6000784221460090F22005F00EF819E39FA058
:103F70004EF67D734FF4784221460090F22005F012
:103F800003F80EE39CA04EF67D734FF47842214671
:103F90000090F22004F0F8FF03E3F6E2EAE2DEE24A
:103FA000D2E2C6E2BAE2AEE2A2E296E28AE27EE2C1
:103FB00072E266E25AE24EE242E236E22AE21EE2B1
:103FC00012E206E2FAE1EEE1E2E1D6E1CAE1BEE1A7
:103FD000B2E1A6E19AE18EE182E176E16AE1A7E051
:103FE0009BE08FE083E077E06BE05FE053E047E049
:103FF0003BE02FE023E017E00BE0FFE781A04EF667
:104000007D734FF4784221460090F22004F0BCFF0B
:10401000C7E27FA04EF67D734FF4784221460090B0
:10402000F22004F0B1FFBCE27CA04EF67D734FF4A9
:10403000784221460090F22004F0A6FFB1E27BA076
:104040004EF67D734FF4784221460090F22004F042
:104050009BFFA6E279A04EF67D734FF4784221468D
:104060000090F22004F090FF9BE278A04EF67D7362
:104070004FF4784221460090F22004F085FF90E250
:1040800074A04EF67D734FF4784221460090F220E2
:1040900004F07AFF85E271A04EF67D734FF478420A
:1040A00021460090F22004F06FFF7AE26DA04EF6F8
:1040B0007D734FF4784221460090F22004F064FFB3
:1040C0006FE26AA04EF67D734FF47842214600906D
:1040D000F22004F059FF64E267A04EF67D734FF4BE
:1040E000784221460090F22004F04EFF59E265A08C
:1040F0004EF67D734FF4784221460090F22004F092
:1041000043FF4EE262A04EF67D734FF478422146A3
:104110000090F22004F038FF43E260A04EF67D7379
:104120004FF4784221460090F22004F02DFF38E24F
:104130005DA04EF67D734FF4784221460090F22048
:1041400004F022FF2DE20000044300209A0000202A
:10415000C7EBB0B4CCE1CABEB2D9D7F700000000BB
:10416000D6F7B0E5CDA8D1B600000000B0E6B1BEEC
:10417000BAC50000544F46B9A9B5E700544F46CD23
:10418000A8D1B600544F46B8B4CEBB00D1D8B1DFE9
:10419000B7A2C9E441000000D1D8B1DFB7A2C9E499
:1041A00042000000D7F3D1D8B1DFBDD3CAD500009B
:1041B000D3D2D1D8B1DFBDD3CAD50000D7F3D2FD59
:1041C000B5BCBDD3CAD50000D3D2D2FDB5BCBDD3DA
:1041D000CAD50000C9CFD2FDB5BCBDD3CAD5000039
:1041E000C7B0D2FDB5BCBDD3CAD50000BAF3D2FD6D
:1041F000B5BCBDD3CAD50000D2FDB5BCB9A9B5E7E1
:1042000000000000C3E2C5F6D7B241B7A2C9E4007E
:10421000C3E2C5F6D7B242B7A2C9E400D7F3C3E2FE
:10422000C5F6D7B2BDD3CAD500000000D3D2C3E2D1
:10423000C5F6D7B2BDD3CAD500000000C7B0C3E2EF
:10424000C5F6D7B2BDD3CAD500000000CDD3C2DDBC
:10425000D2C70000B0B4BCFC31000000B0B4BCFC5C
:1042600032000000B0B4BCFC33000000D7F3CFC272
:10427000CAD3B7A2C9E40000D3D2CFC2CAD3B7A26F
:10428000C9E40000C7B0CFC2CAD3B7A2C9E40000D6
:10429000BAF3CFC2CAD3B7A2C9E40000D7F3CFC2E2
:1042A000CAD3BDD3CAD50000D3D2CFC2CAD3BDD3DF
:1042B000CAD50000FBA04EF67D734FF4784221462C
:1042C0000090F22004F060FE6BE1F9A04EF67D73E1
:1042D0004FF4784221460090F22004F055FE60E150
:1042E000F6A04EF67D734FF4784221460090F220FE
:1042F00004F04AFE55E1F4A04EF67D734FF4784287
:1043000021460090F22004F03FFE4AE1F1A04EF673
:104310007D734FF4784221460090F22004F034FE81
:104320003FE1EFA04EF67D734FF4784221460090B6
:10433000F22004F029FE34E1ECA04EF67D734FF438
:10434000784221460090F22004F01EFE29E1EAA006
:104350004EF67D734FF4784221460090F22004F02F
:1043600013FE1EE1E7A04EF67D734FF4784221461E
:104370000090F22004F008FE13E1E5A04EF67D73F4
:104380004FF4784221460090F22004F0FDFD08E150
:10439000E2A04EF67D734FF4784221460090F22061
:1043A00004F0F2FDFDE0E0A04EF67D734FF478429C
:1043B00021460090F22004F0E7FDF2E0DDA04EF689
:1043C0007D734FF4784221460090F22004F0DCFD2A
:1043D000E7E0DAA04EF67D734FF478422146009074
:1043E000F22004F0D1FDDCE0D6A04EF67D734FF450
:1043F000784221460090F22004F0C6FDD1E0D3A01F
:104400004EF67D734FF4784221460090F22004F07E
:10441000BBFDC6E0D1A04EF67D734FF47842214635
:104420000090F22004F0B0FDBBE0D0A04EF67D730A
:104430004FF4784221460090F22004F0A5FDB0E050
:10444000CDA04EF67D734FF4784221460090F220C5
:1044500004F09AFDA5E0C9A04EF67D734FF47842B2
:1044600021460090F22004F08FFD9AE0C5A04EF6A0
:104470007D734FF4784221460090F22004F084FDD1
:104480008FE0C3A04EF67D734FF478422146009032
:10449000F22004F079FD84E0C1A04EF67D734FF464
:1044A000784221460090F22004F06EFD79E0BFA032
:1044B0004EF67D734FF4784221460090F22004F0CE
:1044C00063FD6EE0BDA04EF67D734FF47842214649
:1044D0000090F22004F058FD63E0BBA04EF67D731F
:1044E0004FF4784221460090F22004F04DFD58E050
:1044F000B8A04EF67D734FF4784221460090F2202A
:1045000004F042FD4DE0B7A04EF67D734FF47842C3
:1045100021460090F22004F037FD42E0B4A04EF6B0
:104520007D734FF4784221460090F22004F02CFD78
:1045300037E0B2A04EF67D734FF4784221460090EA
:10454000F22004F021FD2CE0AFA04EF67D734FF475
:10455000784221460090F22004F016FD21E0ACA044
:104560004EF67D734FF4784221460090F22004F01D
:104570000BFD16E07DA04EF67D734FF47842214688
:104580000090F22004F000FD0BE0A4A04EF67D7335
:104590004FF4784221460090F22004F0F5FC00E050
:1045A00000BF00BFF8BD07B582B00398212877D0BF
:1045B00024DC81F0E285DFE810F0E00D65005901B0
:1045C0008C018D018E018F01C201F50128025B0271
:1045D0008E02C102F50239036D03A103D50309045C
:1045E0003D047204A604DA040F0551058505B905DA
:1045F000ED05210655068906BB06EF06322801F0B7
:10460000938215DCA0F122001028D2D2DFE810F04E
:104610003E077207A607DA070E0842087608A908BF
:10462000DD08120956098809BC09F009240A580A4C
:104630003A2801F025840CDCA0F133000728B8D219
:10464000DFE810F0A60ADA0A0E0B540B850BB80B44
:10465000EB0B3E2801F0E0840ADC3B2801F04384A8
:104660003C2801F073843D2841F0878501F0A1BC0E
:104670003F2801F00585402801F03E85FE28F3D152
:1046800001F062BD049801280BD1AFF22C504EF618
:104690007D73002232210090104604F075FCDAE0B0
:1046A000FCE3BDE0C7B0CFC2CAD3BDD3CAD50000BA
:1046B000BAF3CFC2CAD3BDD3CAD50000D7F3C5F66B
:1046C000D7B2BDD3CAD50000D7F3C5F6D7B2B9A9C2
:1046D000B5E70000D3D2C5F6D7B2BDD3CAD5000026
:1046E000D3D2C5F6D7B2B9A9B5E70000D7F3C0EB6E
:1046F000B5D8BDD3CAD50000D3D2C0EBB5D8BDD391
:10470000CAD50000D7F3C2EBC5CCBDD3CAD50000D3
:10471000D7F3C2EBC5CCB9A9B5E70000D3D2C2EB41
:10472000C5CCBDD3CAD50000D3D2C2EBC5CCB9A984
:10473000B5E70000D7F3B4F3C2D60000D3D2B4F388
:10474000C2D60000B9F6CBA200000000CEFCB3BE7A
:10475000B5E7BBFABCECB2E200000000CEFCB3BE91
:10476000B5E7BBFABFD8D6C600000000B3E4B5E792
:10477000BCECB2E2000000004E544300BFAABBFAFA
:10478000BCFC0000BBD2B3BEBCECB2E20000000037
:10479000BBD2B3BEB4ABB8D0C6F7B9A9B5E7000079
:1047A000B3BEBAD0BCECB2E200000000B3BEBAD0D7
:1047B000B4ABB8D0C6F7B9A9B5E70000CBAECFE42B
:1047C000BCECB2E200000000B6A8CEBBC9E3CFF15A
:1047D000CDB70000B6A8CEBBC9E3CFF1CDB7B9A91C
:1047E000B5E7000044433556BCECB2E200000000DF
:1047F000444335562D4938BCECB2E200B4F3BACB91
:10480000B4AEBFDA0000000057494649000000007E
:10481000B5E7B3D8B5E7C1BF000000004F56500060
:10482000AFF2C4604EF67D734FF4784232210090AF
:10483000002004F0A9FBFB4890F8260101460190F6
:104840000120FFF7BAFAF74890F82601401CC1B2E0
:10485000F44880F82611F4A04EF67D7300224A2118
:104860000090104604F090FB01F088BC04980128E9
:104870000AD1AFF208704EF67D7300224A210090F3
:10488000104604F081FB1AE0AFF220704EF67D7303
:104890004FF478424A210090002004F075FBE14873
:1048A00090F82601014601900220FFF786FADD48C4
:1048B00090F82601401CC1B2DA4880F82611DAA02F
:1048C0004EF67D73002262210090104604F05CFBDE
:1048D000CAE7C9E7C8E7C7E7049801280AD1AFF2D9
:1048E00054704EF67D73002262210090104604F051
:1048F0004BFB1AE0AFF26C704EF67D734FF47842CA
:1049000062210090002004F03FFBC64890F8260189
:10491000014601900620FFF750FAC24890F82601A0
:10492000401CC1B2BF4880F82611BFA04EF67D736F
:1049300000227A210090104604F026FB94E70498A8
:1049400001280AD1AFF2B0704EF67D7300227A21B1
:104950000090104604F018FB1AE0AFF2C4704EF657
:104960007D734FF478427A210090002004F00CFB14
:10497000AC4890F82601014601900720FFF71DFA88
:10498000A84890F82601401CC1B2A64880F826111C
:10499000A5A04EF67D73002292210090104604F0EF
:1049A000F3FA61E7049801280AD1AFF608004EF641
:1049B0007D73002292210090104604F0E5FA1AE07F
:1049C000AFF620004EF67D734FF4784292210090AE
:1049D000002004F0D9FA934890F82601014601908E
:1049E0000820FFF7EAF98F4890F82601401CC1B271
:1049F0008C4880F826118CA04EF67D730022AA21E7
:104A00000090104604F0C0FA2EE7049801280AD15D
:104A1000AFF664004EF67D730022AA210090104686
:104A200004F0B2FA1AE0AFF678004EF67D734FF458
:104A30007842AA210090002004F0A6FA794890F864
:104A40002601014601900920FFF7B7F9754890F853
:104A50002601401CC1B2734880F8261172A04EF6A0
:104A60007D730022C2210090104604F08DFAFBE60F
:104A7000049801280AD1AFF6BC004EF67D730022DF
:104A8000C2210090104604F07FFA1AE0AFF6D4007D
:104A90004EF67D734FF47842C2210090002004F05E
:104AA00073FA604890F82601014601900A20FFF74A
:104AB00084F95C4890F82601401CC1B2594880F83E
:104AC000261159A04EF67D730022DA21009010467F
:104AD00004F05AFAC8E6049801280AD1AFF6181073
:104AE0004EF67D730022DA210090104604F04CFA55
:104AF0001AE0AFF62C104EF67D734FF47842DA21AF
:104B00000090002004F040FA464890F82601014643
:104B100001900B20FFF751F9424890F82601401C04
:104B2000C1B2404880F826113FA04EF67D730022A6
:104B3000F2210090104604F027FA95E60498012827
:104B40000AD1AFF670104EF67D730022F22100906C
:104B5000104604F019FA1AE0AFF688104EF67D738D
:104B60004FF47842F2210090002004F00DFA2D4815
:104B700090F82601014601900C20FFF71EF9294804
:104B800090F82601401CC1B2264880F8261126A0C4
:104B90004EF67D7300224FF485710090104604F0AC
:104BA000F3F961E6049801280BD1AFF6CC104EF66C
:104BB0007D7300224FF485710090104604F0E4F9F3
:104BC0001BE0AFF6E4104EF67D734FF478424FF4DD
:104BD00085710090002004F0D7F9124890F8260162
:104BE000014601900D20FFF7E8F80E4890F82601E5
:104BF000401CC1B20B4880F826114EF67D7040F281
:104C00002713EB2229210090002003F0EFF906A0E2
:104C10004EF67D73002232210090104604F0B4F964
:104C200022E60000DC4100202E2E2E0004980128F0
:104C30000AD1AFF648204EF67D7300223221009053
:104C4000104604F0A1F91AE0AFF660204EF67D732D
:104C50004FF4784232210090002004F095F9FE488C
:104C600090F82601014601900E20FFF7A6F8FA48B9
:104C700090F82601401CC1B2F74880F82611AFF227
:104C800058004EF67D7300224A210090104604F031
:104C90007BF9E9E5049801280AD1AFF6A4204EF685
:104CA0007D7300224A210090104604F06DF91AE04D
:104CB000AFF6BC204EF67D734FF478424A21009047
:104CC000002004F061F9E44890F8260101460190C3
:104CD0000F20FFF772F8E04890F82601401CC1B29F
:104CE000DD4880F82611AFF2C0004EF67D73002239
:104CF00062210090104604F047F9B5E504980128B8
:104D00000AD1AFF600304EF67D730022622100908A
:104D1000104604F039F91AE0AFF618304EF67D73FC
:104D20004FF4784262210090002004F02DF9CA4827
:104D300090F82601014601901020FFF73EF8C64882
:104D400090F82601401CC1B2C34880F82611AFF28A
:104D500028104EF67D7300227A210090104604F050
:104D600013F981E5049801280AD1AFF65C304EF6BC
:104D70007D7300227A210090104604F005F91AE0B4
:104D8000AFF674304EF67D734FF478427A2100907E
:104D9000002004F0F9F8B04890F82601014601908F
:104DA0001120FFF70AF8AC4890F82601401CC1B268
:104DB000A94880F82611AFF290104EF67D730022BC
:104DC00092210090104604F0DFF84DE50498012888
:104DD0000AD1AFF6B8304EF67D73002292210090D2
:104DE000104604F0D1F81AE0AFF6D0304EF67D73DD
:104DF0004FF4784292210090002004F0C5F89648C4
:104E000090F82601014601901220FEF7D6FF924845
:104E100090F82601401CC1B28F4880F82611AFF2ED
:104E2000F8104EF67D730022AA210090104604F07F
:104E3000ABF819E5049801280AD1AFF610404EF6F8
:104E40007D730022AA210090104604F09DF81AE01C
:104E5000AFF628404EF67D734FF47842AA210090B9
:104E6000002004F091F87C4890F82601014601905A
:104E70001320FEF7A2FF784890F82601401CC1B22B
:104E8000754880F82611AFF260204EF67D7300223F
:104E9000C2210090104604F077F8E5E4B1E20498EE
:104EA00001280AD1AFF66C404EF67D730022C22174
:104EB0000090104604F068F81AE0AFF680404EF615
:104EC0007D734FF47842C2210090002004F05CF81A
:104ED000614890F82601014601901420FEF76DFF0D
:104EE0005D4890F82601401CC1B25B4880F826114D
:104EF000AFF2CC204EF67D730022DA2100901046EE
:104F000004F042F8B0E4049801280AD1AFF6C44096
:104F10004EF67D730022DA210090104604F034F83A
:104F20001AE0AFF6D8404EF67D734FF47842DA219E
:104F30000090002004F028F8474890F82601014628
:104F400001901520FEF739FF434890F82601401CD8
:104F5000C1B2414880F82611AFF234304EF67D736D
:104F60000022F2210090104604F00EF87CE4049830
:104F700001280AD1AFF624504EF67D730022F221AB
:104F80000090104604F000F81AE0AFF638504EF6E4
:104F90007D734FF47842F2210090002003F0F4FF7B
:104FA0002D4890F82601014601901620FEF705FFD6
:104FB000294890F82601401CC1B2274880F82611E4
:104FC000AFF29C304EF67D7300224FF48571009055
:104FD000104603F0D9FF47E4049801280BD1AFF63F
:104FE00084504EF67D7300224FF485710090104678
:104FF00003F0CAFF1BE0AFF69C504EF67D734FF4F2
:1050000078424FF485710090002003F0BDFF1248F4
:1050100090F82601014601901720FEF7CEFE0E48BB
:1050200090F82601401CC1B20B4880F826114EF6BC
:105030007D7040F22713EB2229210090002002F01E
:10504000D5FFAFF21C404EF67D7300223221009056
:10505000104603F099FF07E4DC4100200498012882
:105060000AD1AFF600604EF67D7300223221009027
:10507000104603F089FF1AE0AFF618604EF67D7314
:105080004FF4784232210090002003F07DFFFD486C
:1050900090F82601014601901820FEF78EFEF9488F
:1050A00090F82601401CC1B2F64880F82611AFF2F4
:1050B00088404EF67D7300224A210090104603F08E
:1050C00063FF05E4049801280AD1AFF660604EF64C
:1050D0007D7300224A210090104603F055FF1AE02C
:1050E000AFF678604EF67D734FF478424A21009017
:1050F000002003F049FFE34890F8260101460190A3
:105100001920FEF75AFEDF4890F82601401CC1B274
:10511000DC4880F82611AFF2F0404EF67D73002295
:1051200062210090104603F02FFF07E40498012845
:105130000AD1AFF6BC604EF67D730022622100906A
:10514000104603F021FF1AE0AFF6D4604EF67D73EF
:105150004FF4784262210090002003F015FFC94807
:1051600090F82601014601901A20FEF726FEC54858
:1051700090F82601401CC1B2C24880F82611AFF257
:1051800058504EF67D7300227A210090104603F0AD
:10519000FBFE06E4049801280AD1AFF618704EF61B
:1051A0007D7300227A210090104603F0EDFE1AE094
:1051B000AFF630704EF67D734FF478427A2100904E
:1051C000002003F0E1FEAF4890F82601014601906F
:1051D0001B20FEF7F2FDAB4890F82601401CC1B23F
:1051E000A84880F82611AFF2C0504EF67D73002219
:1051F00092210090104603F0C7FE05E404980128B0
:105200000AD1AFF674704EF67D73002292210090A1
:10521000104603F0B9FE1AE0AFF68C704EF67D73BF
:105220004FF4784292210090002003F0ADFE9548A3
:1052300090F82601014601901C20FEF7BEFD914822
:1052400090F82601401CC1B28E4880F82611AFF2BA
:1052500028604EF67D730022AA210090104603F0CC
:1052600093FE04E4049801280AD1AFF6D0704EF6FC
:105270007D730022AA210090104603F085FE1AE0FB
:10528000AFF6E8704EF67D734FF47842AA21009095
:10529000002003F079FE7B4890F82601014601903A
:1052A0001D20FEF78AFD774890F82601401CC1B208
:1052B000744880F82611AFF290604EF67D7300229C
:1052C000C2210090104603F05FFE36E404980128E6
:1052D00009D16D484EF67D730022C2210090104620
:1052E00003F052FE19E068484EF67D734FF47842A1
:1052F000C2210090002003F047FE624890F826018A
:10530000014601901E20FEF758FD5E4890F82601E8
:10531000401CC1B25B4880F82611AFF2F4604EF633
:105320007D730022DA210090104603F02DFE04E484
:10533000049801280AD1AFF694404EF67D730022FE
:10534000DA210090104603F01FFE1AE0AFF6AC40E1
:105350004EF67D734FF47842DA210090002003F07E
:1053600013FE484890F82601014601901F20FEF7E1
:1053700024FD444890F82601401CC1B2414880F801
:105380002611AFF25C704EF67D730022F221009080
:10539000104603F0F9FD04E4049801280AD1AFF6A1
:1053A000F0404EF67D730022F2210090104603F08B
:1053B000EBFD1AE0AFF608504EF67D734FF47842DD
:1053C000F2210090002003F0DFFD2E4890F8260126
:1053D000014601902020FEF7F0FC2A4890F82601B3
:1053E000401CC1B2274880F82611AFF2C4704EF6B7
:1053F0007D7300224FF485710090104603F0C4FDC8
:105400000EE4049801280BD1AFF650504EF67D7390
:1054100000224FF485710090104603F0B5FD1BE0AB
:10542000AFF668504EF67D734FF478424FF48571B5
:105430000090002003F0A8FD124890F826010146D4
:1054400001902120FEF7B9FC0E4890F82601401C7F
:10545000C1B20C4880F826114EF67D7040F2271339
:10546000EB2229210090002002F0C0FDAFF6480099
:105470004EF67D73002232210090104603F084FD29
:1054800007E40000DC410020A8420008049801283D
:105490000AD1AFF6CC504EF67D7300223221009037
:1054A000104603F071FD1AE0AFF6E4504EF67D733E
:1054B0004FF4784232210090002003F065FDFD4852
:1054C00090F82601014601902220FEF776FCF9486B
:1054D00090F82601401CC1B2F64880F82611AFF6BC
:1054E000B8004EF67D7300224A210090104603F06A
:1054F0004BFD36E4049801280AD1AFF628604EF639
:105500007D7300224A210090104603F03DFD1AE011
:10551000AFF640604EF67D734FF478424A2100901A
:10552000002003F031FDE34890F826010146019088
:105530002320FEF742FCDF4890F82601401CC1B250
:10554000DC4880F82611AFF620104EF67D7300225D
:1055500062210090104603F017FD36E404980128FC
:105560000AD1AFF684604EF67D730022622100906E
:10557000104603F009FD1AE0AFF69C604EF67D730D
:105580004FF4784262210090002003F0FDFCC948EE
:1055900090F82601014601902420FEF70EFCC54834
:1055A00090F82601401CC1B2C24880F82611AFF61F
:1055B00088104EF67D7300227A210090104603F089
:1055C000E3FC36E4049801280AD1AFF6E0604EF619
:1055D0007D7300227A210090104603F0D5FC1AE07A
:1055E000AFF6F8604EF67D734FF478427A21009062
:1055F000002003F0C9FCAF4890F826010146019055
:105600002520FEF7DAFBAB4890F82601401CC1B21A
:10561000A84880F82611AFF6F0104EF67D730022F0
:1056200092210090104603F0AFFC36E40498012864
:105630000AD1AFF63C704EF67D73002292210090A5
:10564000104603F0A1FC1AE0AFF654704EF67D73DD
:105650004FF4784292210090002003F095FC954889
:1056600090F82601014601902620FEF7A6FB9148FE
:1056700090F82601401CC1B28E4880F82611AFF682
:1056800058204EF67D730022AA210090104603F0A8
:105690007BFC37E4049801280AD1AFF698704EF6E7
:1056A0007D730022AA210090104603F06DFC1AE0E1
:1056B000AFF6B0704EF67D734FF47842AA21009099
:1056C000002003F061FC7B4890F826010146019020
:1056D0002720FEF772FB774890F82601401CC1B2E4
:1056E000744880F82611AFF6C0204EF67D73002274
:1056F000C2210090104603F047FC37E404980128CB
:105700000AD1AFF6F4704EF67D730022C2210090EC
:10571000104603F039FC19E067484EF67D734FF4EC
:105720007842C2210090002003F02EFC614890F8DE
:105730002601014601902820FEF73FFB5D4890F8C6
:105740002601401CC1B25B4880F82611AFF6283014
:105750004EF67D730022DA210090104603F014FC0F
:1057600004E4049801280AD153480C304EF67D73A6
:105770000022DA210090104603F006FC1AE04E48A1
:105780000C304EF67D734FF47842DA210090002001
:1057900003F0FAFB474890F82601014601902920C2
:1057A000FEF70BFB434890F82601401CC1B241486C
:1057B00080F82611AFF690304EF67D730022F2216C
:1057C0000090104603F0E0FB05E4049801280AD19C
:1057D000394818304EF67D730022F22100901046B1
:1057E00003F0D2FB1AE0344818304EF67D734FF4C4
:1057F0007842F2210090002003F0C6FB2D4890F87B
:105800002601014601902A20FEF7D7FA294890F890
:105810002601401CC1B2274880F82611AFF6F830A7
:105820004EF67D7300224FF485710090104603F010
:10583000ABFB10E4049801280BD11F4824304EF62E
:105840007D7300224FF485710090104603F09CFB9D
:105850001BE0194824304EF67D734FF478424FF424
:1058600085710090002003F08FFB124890F826010C
:10587000014601902B20FEF7A0FA0E4890F8260171
:10588000401CC1B20B4880F826114EF67D7040F2E4
:105890002713EB2229210090002002F0A7FBAFF68E
:1058A00078404EF67D73002232210090104603F0BE
:1058B0006BFB06E4DC410020104700080498012837
:1058C00009D1FE484EF67D73002232210090104629
:1058D00003F05AFB19E0F9484EF67D734FF4784215
:1058E00032210090002003F04FFBF54890F826018C
:1058F000014601902C20FEF760FAF14890F826014D
:10590000401CC1B2EE4880F82611AFF6E4404EF6D6
:105910007D7300224A210090104603F035FB04E419
:10592000049801280AD1E54808304EF67D7300221C
:105930004A210090104603F027FB1AE0DF480830A8
:105940004EF67D734FF478424A210090002003F018
:105950001BFBDB4890F82601014601902D20FEF745
:105960002CFAD74890F82601401CC1B2D44880F8E0
:105970002611AFF64C504EF67D7300226221009046
:10598000104603F001FBF9E3049801280AD1CB4843
:1059900010304EF67D73002262210090104603F015
:1059A000F3FA1AE0C54810304EF67D734FF4784292
:1059B00062210090002003F0E7FAC14890F8260128
:1059C000014601902E20FEF7F8F9BD4890F8260117
:1059D000401CC1B2BA4880F82611AFF6B4504EF65A
:1059E0007D7300227A210090104603F0CDFAC5E3C2
:1059F000049801280AD1B14820304EF67D73002268
:105A00007A210090104603F0BFFA1AE0AB4820302C
:105A10004EF67D734FF478427A210090002003F017
:105A2000B3FAA74890F82601014601902F20FEF70F
:105A3000C4F9A34890F82601401CC1B2A04880F8E0
:105A40002611AFF61C604EF67D7300229221009065
:105A5000104603F099FA91E3049801280AD1974877
:105A600030304EF67D73002292210090104603F0F4
:105A70008BFA1AE0914830304EF67D734FF478423D
:105A800092210090002003F07FFA8D4890F82601C3
:105A9000014601903020FEF790F9894890F82601E0
:105AA000401CC1B2864880F82611AFF684604EF6DD
:105AB0007D730022AA210090104603F065FA5DE391
:105AC000049801280AD17D483C304EF67D730022AF
:105AD000AA210090104603F057FA1AE077483C30AC
